{
  "contractName": "EthCV",
  "abi": [
    {
      "inputs": [],
      "stateMutability": "nonpayable",
      "type": "constructor"
    },
    {
      "anonymous": false,
      "inputs": [
        {
          "indexed": true,
          "internalType": "address",
          "name": "recordOwner",
          "type": "address"
        }
      ],
      "name": "DescriptionChanged",
      "type": "event"
    },
    {
      "anonymous": false,
      "inputs": [
        {
          "indexed": true,
          "internalType": "address",
          "name": "recordOwner",
          "type": "address"
        }
      ],
      "name": "JobStatusChanged",
      "type": "event"
    },
    {
      "anonymous": false,
      "inputs": [
        {
          "indexed": false,
          "internalType": "string",
          "name": "message",
          "type": "string"
        }
      ],
      "name": "LoginFail",
      "type": "event"
    },
    {
      "anonymous": false,
      "inputs": [
        {
          "components": [
            {
              "internalType": "address payable",
              "name": "userAddress",
              "type": "address"
            },
            {
              "internalType": "uint256",
              "name": "userId",
              "type": "uint256"
            },
            {
              "internalType": "string",
              "name": "fullName",
              "type": "string"
            },
            {
              "internalType": "string",
              "name": "email",
              "type": "string"
            },
            {
              "internalType": "string",
              "name": "password",
              "type": "string"
            },
            {
              "internalType": "string",
              "name": "selfDescription",
              "type": "string"
            },
            {
              "internalType": "uint256",
              "name": "verifiedByNum",
              "type": "uint256"
            },
            {
              "internalType": "uint256",
              "name": "hasVerifiedNum",
              "type": "uint256"
            },
            {
              "internalType": "bool",
              "name": "isLookingForJobs",
              "type": "bool"
            }
          ],
          "indexed": false,
          "internalType": "struct EthCV.User",
          "name": "user",
          "type": "tuple"
        }
      ],
      "name": "LoginSuccess",
      "type": "event"
    },
    {
      "anonymous": false,
      "inputs": [
        {
          "indexed": true,
          "internalType": "uint256",
          "name": "recordId",
          "type": "uint256"
        },
        {
          "indexed": true,
          "internalType": "address payable",
          "name": "recordOwner",
          "type": "address"
        },
        {
          "components": [
            {
              "internalType": "uint256",
              "name": "recordId",
              "type": "uint256"
            },
            {
              "internalType": "address payable",
              "name": "recordOwner",
              "type": "address"
            },
            {
              "internalType": "address payable",
              "name": "verifier",
              "type": "address"
            },
            {
              "components": [
                {
                  "internalType": "string",
                  "name": "uId",
                  "type": "string"
                },
                {
                  "internalType": "string",
                  "name": "orgName",
                  "type": "string"
                },
                {
                  "internalType": "string",
                  "name": "position",
                  "type": "string"
                },
                {
                  "internalType": "string",
                  "name": "description",
                  "type": "string"
                }
              ],
              "internalType": "struct EthCV.Experience",
              "name": "experience",
              "type": "tuple"
            },
            {
              "components": [
                {
                  "internalType": "string",
                  "name": "uId",
                  "type": "string"
                },
                {
                  "internalType": "string",
                  "name": "orgName",
                  "type": "string"
                },
                {
                  "internalType": "string",
                  "name": "degreeName",
                  "type": "string"
                },
                {
                  "internalType": "string",
                  "name": "fieldsOfStudy",
                  "type": "string"
                },
                {
                  "internalType": "string",
                  "name": "description",
                  "type": "string"
                }
              ],
              "internalType": "struct EthCV.Education",
              "name": "education",
              "type": "tuple"
            },
            {
              "internalType": "string",
              "name": "startMonthYear",
              "type": "string"
            },
            {
              "internalType": "string",
              "name": "endMonthYear",
              "type": "string"
            },
            {
              "internalType": "bool",
              "name": "isEducation",
              "type": "bool"
            },
            {
              "internalType": "uint256",
              "name": "status",
              "type": "uint256"
            },
            {
              "internalType": "bool",
              "name": "isActive",
              "type": "bool"
            }
          ],
          "indexed": false,
          "internalType": "struct EthCV.Record",
          "name": "record",
          "type": "tuple"
        }
      ],
      "name": "RecordCreated",
      "type": "event"
    },
    {
      "anonymous": false,
      "inputs": [
        {
          "indexed": true,
          "internalType": "uint256",
          "name": "recordId",
          "type": "uint256"
        },
        {
          "indexed": true,
          "internalType": "address payable",
          "name": "recordOwner",
          "type": "address"
        },
        {
          "components": [
            {
              "internalType": "uint256",
              "name": "recordId",
              "type": "uint256"
            },
            {
              "internalType": "address payable",
              "name": "recordOwner",
              "type": "address"
            },
            {
              "internalType": "address payable",
              "name": "verifier",
              "type": "address"
            },
            {
              "components": [
                {
                  "internalType": "string",
                  "name": "uId",
                  "type": "string"
                },
                {
                  "internalType": "string",
                  "name": "orgName",
                  "type": "string"
                },
                {
                  "internalType": "string",
                  "name": "position",
                  "type": "string"
                },
                {
                  "internalType": "string",
                  "name": "description",
                  "type": "string"
                }
              ],
              "internalType": "struct EthCV.Experience",
              "name": "experience",
              "type": "tuple"
            },
            {
              "components": [
                {
                  "internalType": "string",
                  "name": "uId",
                  "type": "string"
                },
                {
                  "internalType": "string",
                  "name": "orgName",
                  "type": "string"
                },
                {
                  "internalType": "string",
                  "name": "degreeName",
                  "type": "string"
                },
                {
                  "internalType": "string",
                  "name": "fieldsOfStudy",
                  "type": "string"
                },
                {
                  "internalType": "string",
                  "name": "description",
                  "type": "string"
                }
              ],
              "internalType": "struct EthCV.Education",
              "name": "education",
              "type": "tuple"
            },
            {
              "internalType": "string",
              "name": "startMonthYear",
              "type": "string"
            },
            {
              "internalType": "string",
              "name": "endMonthYear",
              "type": "string"
            },
            {
              "internalType": "bool",
              "name": "isEducation",
              "type": "bool"
            },
            {
              "internalType": "uint256",
              "name": "status",
              "type": "uint256"
            },
            {
              "internalType": "bool",
              "name": "isActive",
              "type": "bool"
            }
          ],
          "indexed": false,
          "internalType": "struct EthCV.Record",
          "name": "record",
          "type": "tuple"
        }
      ],
      "name": "RecordVerified",
      "type": "event"
    },
    {
      "anonymous": false,
      "inputs": [
        {
          "indexed": true,
          "internalType": "address payable",
          "name": "recordOwner",
          "type": "address"
        }
      ],
      "name": "StatusChanged",
      "type": "event"
    },
    {
      "inputs": [],
      "name": "APPROVE_CODE",
      "outputs": [
        {
          "internalType": "uint256",
          "name": "",
          "type": "uint256"
        }
      ],
      "stateMutability": "view",
      "type": "function",
      "constant": true
    },
    {
      "inputs": [],
      "name": "DISAPPROVE_CODE",
      "outputs": [
        {
          "internalType": "uint256",
          "name": "",
          "type": "uint256"
        }
      ],
      "stateMutability": "view",
      "type": "function",
      "constant": true
    },
    {
      "inputs": [],
      "name": "UNVERIFIED_CODE",
      "outputs": [
        {
          "internalType": "uint256",
          "name": "",
          "type": "uint256"
        }
      ],
      "stateMutability": "view",
      "type": "function",
      "constant": true
    },
    {
      "inputs": [],
      "name": "appName",
      "outputs": [
        {
          "internalType": "string",
          "name": "",
          "type": "string"
        }
      ],
      "stateMutability": "view",
      "type": "function",
      "constant": true
    },
    {
      "inputs": [],
      "name": "recordAddPrice",
      "outputs": [
        {
          "internalType": "uint256",
          "name": "",
          "type": "uint256"
        }
      ],
      "stateMutability": "view",
      "type": "function",
      "constant": true
    },
    {
      "inputs": [],
      "name": "recordVerifyAward",
      "outputs": [
        {
          "internalType": "uint256",
          "name": "",
          "type": "uint256"
        }
      ],
      "stateMutability": "view",
      "type": "function",
      "constant": true
    },
    {
      "inputs": [
        {
          "internalType": "uint256",
          "name": "",
          "type": "uint256"
        }
      ],
      "name": "records",
      "outputs": [
        {
          "internalType": "uint256",
          "name": "recordId",
          "type": "uint256"
        },
        {
          "internalType": "address payable",
          "name": "recordOwner",
          "type": "address"
        },
        {
          "internalType": "address payable",
          "name": "verifier",
          "type": "address"
        },
        {
          "components": [
            {
              "internalType": "string",
              "name": "uId",
              "type": "string"
            },
            {
              "internalType": "string",
              "name": "orgName",
              "type": "string"
            },
            {
              "internalType": "string",
              "name": "position",
              "type": "string"
            },
            {
              "internalType": "string",
              "name": "description",
              "type": "string"
            }
          ],
          "internalType": "struct EthCV.Experience",
          "name": "experience",
          "type": "tuple"
        },
        {
          "components": [
            {
              "internalType": "string",
              "name": "uId",
              "type": "string"
            },
            {
              "internalType": "string",
              "name": "orgName",
              "type": "string"
            },
            {
              "internalType": "string",
              "name": "degreeName",
              "type": "string"
            },
            {
              "internalType": "string",
              "name": "fieldsOfStudy",
              "type": "string"
            },
            {
              "internalType": "string",
              "name": "description",
              "type": "string"
            }
          ],
          "internalType": "struct EthCV.Education",
          "name": "education",
          "type": "tuple"
        },
        {
          "internalType": "string",
          "name": "startMonthYear",
          "type": "string"
        },
        {
          "internalType": "string",
          "name": "endMonthYear",
          "type": "string"
        },
        {
          "internalType": "bool",
          "name": "isEducation",
          "type": "bool"
        },
        {
          "internalType": "uint256",
          "name": "status",
          "type": "uint256"
        },
        {
          "internalType": "bool",
          "name": "isActive",
          "type": "bool"
        }
      ],
      "stateMutability": "view",
      "type": "function",
      "constant": true
    },
    {
      "inputs": [],
      "name": "totalNumber",
      "outputs": [
        {
          "internalType": "uint256",
          "name": "",
          "type": "uint256"
        }
      ],
      "stateMutability": "view",
      "type": "function",
      "constant": true
    },
    {
      "inputs": [],
      "name": "totalUserNumber",
      "outputs": [
        {
          "internalType": "uint256",
          "name": "",
          "type": "uint256"
        }
      ],
      "stateMutability": "view",
      "type": "function",
      "constant": true
    },
    {
      "inputs": [
        {
          "internalType": "uint256",
          "name": "",
          "type": "uint256"
        }
      ],
      "name": "usersForSearch",
      "outputs": [
        {
          "internalType": "uint256",
          "name": "userId",
          "type": "uint256"
        },
        {
          "internalType": "address payable",
          "name": "userAddress",
          "type": "address"
        },
        {
          "internalType": "string",
          "name": "fullName",
          "type": "string"
        },
        {
          "internalType": "string",
          "name": "email",
          "type": "string"
        },
        {
          "internalType": "string",
          "name": "selfDescription",
          "type": "string"
        },
        {
          "internalType": "uint256",
          "name": "verifiedByNum",
          "type": "uint256"
        },
        {
          "internalType": "uint256",
          "name": "hasVerifiedNum",
          "type": "uint256"
        },
        {
          "internalType": "bool",
          "name": "isLookingForJobs",
          "type": "bool"
        }
      ],
      "stateMutability": "view",
      "type": "function",
      "constant": true
    },
    {
      "inputs": [
        {
          "internalType": "address payable",
          "name": "_ethAccount",
          "type": "address"
        },
        {
          "internalType": "string",
          "name": "_fullName",
          "type": "string"
        },
        {
          "internalType": "string",
          "name": "_email",
          "type": "string"
        },
        {
          "internalType": "string",
          "name": "_password",
          "type": "string"
        },
        {
          "internalType": "string",
          "name": "_selfDescription",
          "type": "string"
        },
        {
          "internalType": "bool",
          "name": "_isLookingForJobs",
          "type": "bool"
        }
      ],
      "name": "Register",
      "outputs": [
        {
          "internalType": "bool",
          "name": "",
          "type": "bool"
        }
      ],
      "stateMutability": "nonpayable",
      "type": "function"
    },
    {
      "inputs": [
        {
          "internalType": "address payable",
          "name": "_ethAccount",
          "type": "address"
        },
        {
          "internalType": "string",
          "name": "_password",
          "type": "string"
        }
      ],
      "name": "Login",
      "outputs": [
        {
          "internalType": "bool",
          "name": "",
          "type": "bool"
        }
      ],
      "stateMutability": "nonpayable",
      "type": "function"
    },
    {
      "inputs": [
        {
          "internalType": "address payable",
          "name": "_accountAddress",
          "type": "address"
        },
        {
          "internalType": "string",
          "name": "_description",
          "type": "string"
        }
      ],
      "name": "changeDescription",
      "outputs": [],
      "stateMutability": "nonpayable",
      "type": "function"
    },
    {
      "inputs": [
        {
          "internalType": "address payable",
          "name": "_accountAddress",
          "type": "address"
        }
      ],
      "name": "changeJobStatus",
      "outputs": [],
      "stateMutability": "nonpayable",
      "type": "function"
    },
    {
      "inputs": [
        {
          "internalType": "string",
          "name": "_uId",
          "type": "string"
        },
        {
          "internalType": "string",
          "name": "_orgName",
          "type": "string"
        },
        {
          "internalType": "string",
          "name": "_position",
          "type": "string"
        },
        {
          "internalType": "string",
          "name": "_description",
          "type": "string"
        },
        {
          "internalType": "string",
          "name": "_startMonthYear",
          "type": "string"
        },
        {
          "internalType": "string",
          "name": "_endMonthYear",
          "type": "string"
        },
        {
          "internalType": "string",
          "name": "_degreeName",
          "type": "string"
        },
        {
          "internalType": "string",
          "name": "_fieldsOfStudy",
          "type": "string"
        },
        {
          "internalType": "address payable",
          "name": "_verifier",
          "type": "address"
        },
        {
          "internalType": "bool",
          "name": "_isEducation",
          "type": "bool"
        }
      ],
      "name": "createRecord",
      "outputs": [],
      "stateMutability": "payable",
      "type": "function",
      "payable": true
    },
    {
      "inputs": [
        {
          "internalType": "uint256",
          "name": "_recordId",
          "type": "uint256"
        },
        {
          "internalType": "bool",
          "name": "_isApproved",
          "type": "bool"
        }
      ],
      "name": "verifyRecord",
      "outputs": [],
      "stateMutability": "payable",
      "type": "function",
      "payable": true
    },
    {
      "inputs": [
        {
          "internalType": "uint256",
          "name": "_recordId",
          "type": "uint256"
        }
      ],
      "name": "changeStatus",
      "outputs": [],
      "stateMutability": "nonpayable",
      "type": "function"
    },
    {
      "inputs": [],
      "name": "getAllUsers",
      "outputs": [
        {
          "components": [
            {
              "internalType": "uint256",
              "name": "userId",
              "type": "uint256"
            },
            {
              "internalType": "address payable",
              "name": "userAddress",
              "type": "address"
            },
            {
              "internalType": "string",
              "name": "fullName",
              "type": "string"
            },
            {
              "internalType": "string",
              "name": "email",
              "type": "string"
            },
            {
              "internalType": "string",
              "name": "selfDescription",
              "type": "string"
            },
            {
              "internalType": "uint256",
              "name": "verifiedByNum",
              "type": "uint256"
            },
            {
              "internalType": "uint256",
              "name": "hasVerifiedNum",
              "type": "uint256"
            },
            {
              "internalType": "bool",
              "name": "isLookingForJobs",
              "type": "bool"
            }
          ],
          "internalType": "struct EthCV.UserForSearch[]",
          "name": "",
          "type": "tuple[]"
        }
      ],
      "stateMutability": "view",
      "type": "function",
      "constant": true
    }
  ],
  "bytecode": "0x608060405260006001556000600255670de0b6b3a7640000600355670b1a2bc2ec5000006004556000600555600160065560026007553480156200004257600080fd5b506040518060400160405280601181526020017f454543453537312045544843562e434f4d000000000000000000000000000000815250600090805190602001906200009092919062000097565b506200014d565b828054600181600116156101000203166002900490600052602060002090601f016020900481019282620000cf57600085556200011b565b82601f10620000ea57805160ff19168380011785556200011b565b828001600101855582156200011b579182015b828111156200011a578251825591602001919060010190620000fd565b5b5090506200012a91906200012e565b5090565b5b80821115620001495760008160009055506001016200012f565b5090565b615ff4806200015d6000396000f3fe6080604052600436106101095760003560e01c8063a4b4e42b11610095578063e3967eed11610064578063e3967eed14610384578063e8025d77146103af578063ec2ead69146103d8578063ecd36b3414610401578063ef5652ac1461042c57610109565b8063a4b4e42b146102c6578063c0daddfd14610303578063d183dcce1461032e578063e2842d791461035957610109565b80636c1fdd35116100dc5780636c1fdd35146101d357806380497abc146102105780638a7c65c0146102545780638b81ba841461027f5780639b57904f1461029b57610109565b80630c97282c1461010e5780631ed6f423146101395780633446106714610162578063561529b3146101a8575b600080fd5b34801561011a57600080fd5b50610123610448565b60405161013091906158f5565b60405180910390f35b34801561014557600080fd5b50610160600480360381019061015b919061471d565b6104e6565b005b34801561016e57600080fd5b50610189600480360381019061018491906149f5565b610a48565b60405161019f9a99989796959493929190615c18565b60405180910390f35b3480156101b457600080fd5b506101bd6111ec565b6040516101ca9190615bfd565b60405180910390f35b3480156101df57600080fd5b506101fa60048036038101906101f59190614771565b6111f2565b60405161020791906158da565b60405180910390f35b34801561021c57600080fd5b50610237600480360381019061023291906149f5565b61174c565b60405161024b989796959493929190615cd0565b60405180910390f35b34801561026057600080fd5b50610269611999565b6040516102769190615bfd565b60405180910390f35b6102996004803603810190610294919061485a565b61199f565b005b3480156102a757600080fd5b506102b0611ffc565b6040516102bd9190615bfd565b60405180910390f35b3480156102d257600080fd5b506102ed60048036038101906102e8919061471d565b612002565b6040516102fa91906158da565b60405180910390f35b34801561030f57600080fd5b506103186121c6565b6040516103259190615bfd565b60405180910390f35b34801561033a57600080fd5b506103436121cc565b6040516103509190615bfd565b60405180910390f35b34801561036557600080fd5b5061036e6121d2565b60405161037b91906158b8565b60405180910390f35b34801561039057600080fd5b506103996124a7565b6040516103a69190615bfd565b60405180910390f35b3480156103bb57600080fd5b506103d660048036038101906103d191906149f5565b6124ad565b005b3480156103e457600080fd5b506103ff60048036038101906103fa91906146f4565b613055565b005b34801561040d57600080fd5b50610416613606565b6040516104239190615bfd565b60405180910390f35b61044660048036038101906104419190614a1e565b61360c565b005b60008054600181600116156101000203166002900480601f0160208091040260200160405190810160405280929190818152602001828054600181600116156101000203166002900480156104de5780601f106104b3576101008083540402835291602001916104de565b820191906000526020600020905b8154815290600101906020018083116104c157829003601f168201915b505050505081565b8173ffffffffffffffffffffffffffffffffffffffff163373ffffffffffffffffffffffffffffffffffffffff1614610554576040517f08c379a000000000000000000000000000000000000000000000000000000000815260040161054b90615b37565b60405180910390fd5b6000600860008473ffffffffffffffffffffffffffffffffffffffff1673ffffffffffffffffffffffffffffffffffffffff168152602001908152602001600020604051806101200160405290816000820160009054906101000a900473ffffffffffffffffffffffffffffffffffffffff1673ffffffffffffffffffffffffffffffffffffffff1673ffffffffffffffffffffffffffffffffffffffff16815260200160018201548152602001600282018054600181600116156101000203166002900480601f01602080910402602001604051908101604052809291908181526020018280546001816001161561010002031660029004801561069a5780601f1061066f5761010080835404028352916020019161069a565b820191906000526020600020905b81548152906001019060200180831161067d57829003601f168201915b50505050508152602001600382018054600181600116156101000203166002900480601f01602080910402602001604051908101604052809291908181526020018280546001816001161561010002031660029004801561073c5780601f106107115761010080835404028352916020019161073c565b820191906000526020600020905b81548152906001019060200180831161071f57829003601f168201915b50505050508152602001600482018054600181600116156101000203166002900480601f0160208091040260200160405190810160405280929190818152602001828054600181600116156101000203166002900480156107de5780601f106107b3576101008083540402835291602001916107de565b820191906000526020600020905b8154815290600101906020018083116107c157829003601f168201915b50505050508152602001600582018054600181600116156101000203166002900480601f0160208091040260200160405190810160405280929190818152602001828054600181600116156101000203166002900480156108805780601f1061085557610100808354040283529160200191610880565b820191906000526020600020905b81548152906001019060200180831161086357829003601f168201915b5050505050815260200160068201548152602001600782015481526020016008820160009054906101000a900460ff1615151515815250509050818160a0018190525080600860008573ffffffffffffffffffffffffffffffffffffffff1673ffffffffffffffffffffffffffffffffffffffff16815260200190815260200160002060008201518160000160006101000a81548173ffffffffffffffffffffffffffffffffffffffff021916908373ffffffffffffffffffffffffffffffffffffffff1602179055506020820151816001015560408201518160020190805190602001906109709291906143fb565b50606082015181600301908051906020019061098d9291906143fb565b5060808201518160040190805190602001906109aa9291906143fb565b5060a08201518160050190805190602001906109c79291906143fb565b5060c0820151816006015560e082015181600701556101008201518160080160006101000a81548160ff0219169083151502179055509050503373ffffffffffffffffffffffffffffffffffffffff167f4ee2636d9d8e05a7615cc0fd2e52ac7da430b5d23646c92a265edd47f72dc34260405160405180910390a2505050565b60096020528060005260406000206000915090508060000154908060010160009054906101000a900473ffffffffffffffffffffffffffffffffffffffff16908060020160009054906101000a900473ffffffffffffffffffffffffffffffffffffffff169080600301604051806080016040529081600082018054600181600116156101000203166002900480601f016020809104026020016040519081016040528092919081815260200182805460018160011615610100020316600290048015610b565780601f10610b2b57610100808354040283529160200191610b56565b820191906000526020600020905b815481529060010190602001808311610b3957829003601f168201915b50505050508152602001600182018054600181600116156101000203166002900480601f016020809104026020016040519081016040528092919081815260200182805460018160011615610100020316600290048015610bf85780601f10610bcd57610100808354040283529160200191610bf8565b820191906000526020600020905b815481529060010190602001808311610bdb57829003601f168201915b50505050508152602001600282018054600181600116156101000203166002900480601f016020809104026020016040519081016040528092919081815260200182805460018160011615610100020316600290048015610c9a5780601f10610c6f57610100808354040283529160200191610c9a565b820191906000526020600020905b815481529060010190602001808311610c7d57829003601f168201915b50505050508152602001600382018054600181600116156101000203166002900480601f016020809104026020016040519081016040528092919081815260200182805460018160011615610100020316600290048015610d3c5780601f10610d1157610100808354040283529160200191610d3c565b820191906000526020600020905b815481529060010190602001808311610d1f57829003601f168201915b50505050508152505090806007016040518060a0016040529081600082018054600181600116156101000203166002900480601f016020809104026020016040519081016040528092919081815260200182805460018160011615610100020316600290048015610dee5780601f10610dc357610100808354040283529160200191610dee565b820191906000526020600020905b815481529060010190602001808311610dd157829003601f168201915b50505050508152602001600182018054600181600116156101000203166002900480601f016020809104026020016040519081016040528092919081815260200182805460018160011615610100020316600290048015610e905780601f10610e6557610100808354040283529160200191610e90565b820191906000526020600020905b815481529060010190602001808311610e7357829003601f168201915b50505050508152602001600282018054600181600116156101000203166002900480601f016020809104026020016040519081016040528092919081815260200182805460018160011615610100020316600290048015610f325780601f10610f0757610100808354040283529160200191610f32565b820191906000526020600020905b815481529060010190602001808311610f1557829003601f168201915b50505050508152602001600382018054600181600116156101000203166002900480601f016020809104026020016040519081016040528092919081815260200182805460018160011615610100020316600290048015610fd45780601f10610fa957610100808354040283529160200191610fd4565b820191906000526020600020905b815481529060010190602001808311610fb757829003601f168201915b50505050508152602001600482018054600181600116156101000203166002900480601f0160208091040260200160405190810160405280929190818152602001828054600181600116156101000203166002900480156110765780601f1061104b57610100808354040283529160200191611076565b820191906000526020600020905b81548152906001019060200180831161105957829003601f168201915b5050505050815250509080600c018054600181600116156101000203166002900480601f0160208091040260200160405190810160405280929190818152602001828054600181600116156101000203166002900480156111185780601f106110ed57610100808354040283529160200191611118565b820191906000526020600020905b8154815290600101906020018083116110fb57829003601f168201915b50505050509080600d018054600181600116156101000203166002900480601f0160208091040260200160405190810160405280929190818152602001828054600181600116156101000203166002900480156111b65780601f1061118b576101008083540402835291602001916111b6565b820191906000526020600020905b81548152906001019060200180831161119957829003601f168201915b50505050509080600e0160009054906101000a900460ff169080600f0154908060100160009054906101000a900460ff1690508a565b60035481565b60008073ffffffffffffffffffffffffffffffffffffffff168773ffffffffffffffffffffffffffffffffffffffff161415611263576040517f08c379a000000000000000000000000000000000000000000000000000000000815260040161125a90615977565b60405180910390fd5b6000600860008973ffffffffffffffffffffffffffffffffffffffff1673ffffffffffffffffffffffffffffffffffffffff16815260200190815260200160002060010154146112e8576040517f08c379a00000000000000000000000000000000000000000000000000000000081526004016112df90615997565b60405180910390fd5b600086511161132c576040517f08c379a000000000000000000000000000000000000000000000000000000000815260040161132390615b17565b60405180910390fd5b6000855111611370576040517f08c379a000000000000000000000000000000000000000000000000000000000815260040161136790615b77565b60405180910390fd5b60008451116113b4576040517f08c379a00000000000000000000000000000000000000000000000000000000081526004016113ab90615a77565b60405180910390fd5b6113bc614489565b60016000815480929190600101919050555060015481602001818152505087816000019073ffffffffffffffffffffffffffffffffffffffff16908173ffffffffffffffffffffffffffffffffffffffff1681525050868160400181905250858160600181905250848160800181905250838160a00181905250828161010001901515908115158152505080600860008a73ffffffffffffffffffffffffffffffffffffffff1673ffffffffffffffffffffffffffffffffffffffff16815260200190815260200160002060008201518160000160006101000a81548173ffffffffffffffffffffffffffffffffffffffff021916908373ffffffffffffffffffffffffffffffffffffffff1602179055506020820151816001015560408201518160020190805190602001906114f49291906143fb565b5060608201518160030190805190602001906115119291906143fb565b50608082015181600401908051906020019061152e9291906143fb565b5060a082015181600501908051906020019061154b9291906143fb565b5060c0820151816006015560e082015181600701556101008201518160080160006101000a81548160ff02191690831515021790555090505061158c6144ed565b87816040018190525088816020019073ffffffffffffffffffffffffffffffffffffffff16908173ffffffffffffffffffffffffffffffffffffffff1681525050600154816000018181525050838160e0019015159081151581525050868160600181905250848160800181905250600a8190806001815401808255809150506001900390600052602060002090600802016000909190919091506000820151816000015560208201518160010160006101000a81548173ffffffffffffffffffffffffffffffffffffffff021916908373ffffffffffffffffffffffffffffffffffffffff16021790555060408201518160020190805190602001906116949291906143fb565b5060608201518160030190805190602001906116b19291906143fb565b5060808201518160040190805190602001906116ce9291906143fb565b5060a0820151816005015560c0820151816006015560e08201518160070160006101000a81548160ff02191690831515021790555050507ff594c688bf89bd5d36613fa228cbd27811fbe1eb34786d4619d52b892a639d7f826040516117349190615bb9565b60405180910390a16001925050509695505050505050565b600a818154811061175c57600080fd5b90600052602060002090600802016000915090508060000154908060010160009054906101000a900473ffffffffffffffffffffffffffffffffffffffff1690806002018054600181600116156101000203166002900480601f0160208091040260200160405190810160405280929190818152602001828054600181600116156101000203166002900480156118345780601f1061180957610100808354040283529160200191611834565b820191906000526020600020905b81548152906001019060200180831161181757829003601f168201915b505050505090806003018054600181600116156101000203166002900480601f0160208091040260200160405190810160405280929190818152602001828054600181600116156101000203166002900480156118d25780601f106118a7576101008083540402835291602001916118d2565b820191906000526020600020905b8154815290600101906020018083116118b557829003601f168201915b505050505090806004018054600181600116156101000203166002900480601f0160208091040260200160405190810160405280929190818152602001828054600181600116156101000203166002900480156119705780601f1061194557610100808354040283529160200191611970565b820191906000526020600020905b81548152906001019060200180831161195357829003601f168201915b5050505050908060050154908060060154908060070160009054906101000a900460ff16905088565b60065481565b600073ffffffffffffffffffffffffffffffffffffffff168273ffffffffffffffffffffffffffffffffffffffff1614158015611a0857508173ffffffffffffffffffffffffffffffffffffffff163373ffffffffffffffffffffffffffffffffffffffff1614155b611a47576040517f08c379a0000000000000000000000000000000000000000000000000000000008152600401611a3e90615a57565b60405180910390fd5b6000865111611a8b576040517f08c379a0000000000000000000000000000000000000000000000000000000008152600401611a8290615ad7565b60405180910390fd5b6000855111611acf576040517f08c379a0000000000000000000000000000000000000000000000000000000008152600401611ac6906159f7565b60405180910390fd5b600354341015611b14576040517f08c379a0000000000000000000000000000000000000000000000000000000008152600401611b0b90615a37565b60405180910390fd5b60008a5111611b58576040517f08c379a0000000000000000000000000000000000000000000000000000000008152600401611b4f90615af7565b60405180910390fd5b6000895111611b9c576040517f08c379a0000000000000000000000000000000000000000000000000000000008152600401611b9390615b57565b60405180910390fd5b611ba461454a565b81611c1b576000895111611bed576040517f08c379a0000000000000000000000000000000000000000000000000000000008152600401611be490615a97565b60405180910390fd5b60405180608001604052808c81526020018b81526020018a8152602001898152508160600181905250611c8f565b6000855111611c5f576040517f08c379a0000000000000000000000000000000000000000000000000000000008152600401611c5690615ab7565b60405180910390fd5b6040518060a001604052808c81526020018b81526020018681526020018581526020018981525081608001819052505b60026000815480929190600101919050555060025481600001818152505033816020019073ffffffffffffffffffffffffffffffffffffffff16908173ffffffffffffffffffffffffffffffffffffffff168152505082816040019073ffffffffffffffffffffffffffffffffffffffff16908173ffffffffffffffffffffffffffffffffffffffff1681525050818160e001901515908115158152505060055481610100018181525050600181610120019015159081151581525050806009600060025481526020019081526020016000206000820151816000015560208201518160010160006101000a81548173ffffffffffffffffffffffffffffffffffffffff021916908373ffffffffffffffffffffffffffffffffffffffff16021790555060408201518160020160006101000a81548173ffffffffffffffffffffffffffffffffffffffff021916908373ffffffffffffffffffffffffffffffffffffffff1602179055506060820151816003016000820151816000019080519060200190611e1f9291906143fb565b506020820151816001019080519060200190611e3c9291906143fb565b506040820151816002019080519060200190611e599291906143fb565b506060820151816003019080519060200190611e769291906143fb565b5050506080820151816007016000820151816000019080519060200190611e9e9291906143fb565b506020820151816001019080519060200190611ebb9291906143fb565b506040820151816002019080519060200190611ed89291906143fb565b506060820151816003019080519060200190611ef59291906143fb565b506080820151816004019080519060200190611f129291906143fb565b50505060a082015181600c019080519060200190611f319291906143fb565b5060c082015181600d019080519060200190611f4e9291906143fb565b5060e082015181600e0160006101000a81548160ff02191690831515021790555061010082015181600f01556101208201518160100160006101000a81548160ff0219169083151502179055509050503373ffffffffffffffffffffffffffffffffffffffff166002547f98a8df24b95686550fb6e64b36d15244c286aadd121bcb1d2cb38364c1cffce083604051611fe79190615b97565b60405180910390a35050505050505050505050565b60045481565b60008073ffffffffffffffffffffffffffffffffffffffff168373ffffffffffffffffffffffffffffffffffffffff161415612073576040517f08c379a000000000000000000000000000000000000000000000000000000000815260040161206a90615977565b60405180910390fd5b81604051602001612084919061588a565b60405160208183030381529060405280519060200120600860008573ffffffffffffffffffffffffffffffffffffffff1673ffffffffffffffffffffffffffffffffffffffff1681526020019081526020016000206004016040516020016120ec91906158a1565b604051602081830303815290604052805190602001201415612186577ff594c688bf89bd5d36613fa228cbd27811fbe1eb34786d4619d52b892a639d7f600860008573ffffffffffffffffffffffffffffffffffffffff1673ffffffffffffffffffffffffffffffffffffffff1681526020019081526020016000206040516121759190615bdb565b60405180910390a1600190506121c0565b7f4c74530a3ef466183b718601f9ad1f7a0c8ec56463a9e68efef55c81e7e4141f6040516121b390615a17565b60405180910390a1600090505b92915050565b60025481565b60075481565b6060600a805480602002602001604051908101604052809291908181526020016000905b8282101561249e578382906000526020600020906008020160405180610100016040529081600082015481526020016001820160009054906101000a900473ffffffffffffffffffffffffffffffffffffffff1673ffffffffffffffffffffffffffffffffffffffff1673ffffffffffffffffffffffffffffffffffffffff168152602001600282018054600181600116156101000203166002900480601f0160208091040260200160405190810160405280929190818152602001828054600181600116156101000203166002900480156123135780601f106122e857610100808354040283529160200191612313565b820191906000526020600020905b8154815290600101906020018083116122f657829003601f168201915b50505050508152602001600382018054600181600116156101000203166002900480601f0160208091040260200160405190810160405280929190818152602001828054600181600116156101000203166002900480156123b55780601f1061238a576101008083540402835291602001916123b5565b820191906000526020600020905b81548152906001019060200180831161239857829003601f168201915b50505050508152602001600482018054600181600116156101000203166002900480601f0160208091040260200160405190810160405280929190818152602001828054600181600116156101000203166002900480156124575780601f1061242c57610100808354040283529160200191612457565b820191906000526020600020905b81548152906001019060200180831161243a57829003601f168201915b5050505050815260200160058201548152602001600682015481526020016007820160009054906101000a900460ff161515151581525050815260200190600101906121f6565b50505050905090565b60015481565b6000811180156124bf57506002548111155b6124fe576040517f08c379a00000000000000000000000000000000000000000000000000000000081526004016124f5906159d7565b60405180910390fd5b60006009600083815260200190815260200160002060405180610140016040529081600082015481526020016001820160009054906101000a900473ffffffffffffffffffffffffffffffffffffffff1673ffffffffffffffffffffffffffffffffffffffff1673ffffffffffffffffffffffffffffffffffffffff1681526020016002820160009054906101000a900473ffffffffffffffffffffffffffffffffffffffff1673ffffffffffffffffffffffffffffffffffffffff1673ffffffffffffffffffffffffffffffffffffffff16815260200160038201604051806080016040529081600082018054600181600116156101000203166002900480601f01602080910402602001604051908101604052809291908181526020018280546001816001161561010002031660029004801561267e5780601f106126535761010080835404028352916020019161267e565b820191906000526020600020905b81548152906001019060200180831161266157829003601f168201915b50505050508152602001600182018054600181600116156101000203166002900480601f0160208091040260200160405190810160405280929190818152602001828054600181600116156101000203166002900480156127205780601f106126f557610100808354040283529160200191612720565b820191906000526020600020905b81548152906001019060200180831161270357829003601f168201915b50505050508152602001600282018054600181600116156101000203166002900480601f0160208091040260200160405190810160405280929190818152602001828054600181600116156101000203166002900480156127c25780601f10612797576101008083540402835291602001916127c2565b820191906000526020600020905b8154815290600101906020018083116127a557829003601f168201915b50505050508152602001600382018054600181600116156101000203166002900480601f0160208091040260200160405190810160405280929190818152602001828054600181600116156101000203166002900480156128645780601f1061283957610100808354040283529160200191612864565b820191906000526020600020905b81548152906001019060200180831161284757829003601f168201915b5050505050815250508152602001600782016040518060a0016040529081600082018054600181600116156101000203166002900480601f01602080910402602001604051908101604052809291908181526020018280546001816001161561010002031660029004801561291a5780601f106128ef5761010080835404028352916020019161291a565b820191906000526020600020905b8154815290600101906020018083116128fd57829003601f168201915b50505050508152602001600182018054600181600116156101000203166002900480601f0160208091040260200160405190810160405280929190818152602001828054600181600116156101000203166002900480156129bc5780601f10612991576101008083540402835291602001916129bc565b820191906000526020600020905b81548152906001019060200180831161299f57829003601f168201915b50505050508152602001600282018054600181600116156101000203166002900480601f016020809104026020016040519081016040528092919081815260200182805460018160011615610100020316600290048015612a5e5780601f10612a3357610100808354040283529160200191612a5e565b820191906000526020600020905b815481529060010190602001808311612a4157829003601f168201915b50505050508152602001600382018054600181600116156101000203166002900480601f016020809104026020016040519081016040528092919081815260200182805460018160011615610100020316600290048015612b005780601f10612ad557610100808354040283529160200191612b00565b820191906000526020600020905b815481529060010190602001808311612ae357829003601f168201915b50505050508152602001600482018054600181600116156101000203166002900480601f016020809104026020016040519081016040528092919081815260200182805460018160011615610100020316600290048015612ba25780601f10612b7757610100808354040283529160200191612ba2565b820191906000526020600020905b815481529060010190602001808311612b8557829003601f168201915b5050505050815250508152602001600c82018054600181600116156101000203166002900480601f016020809104026020016040519081016040528092919081815260200182805460018160011615610100020316600290048015612c485780601f10612c1d57610100808354040283529160200191612c48565b820191906000526020600020905b815481529060010190602001808311612c2b57829003601f168201915b50505050508152602001600d82018054600181600116156101000203166002900480601f016020809104026020016040519081016040528092919081815260200182805460018160011615610100020316600290048015612cea5780601f10612cbf57610100808354040283529160200191612cea565b820191906000526020600020905b815481529060010190602001808311612ccd57829003601f168201915b50505050508152602001600e820160009054906101000a900460ff16151515158152602001600f82015481526020016010820160009054906101000a900460ff1615151515815250509050806020015173ffffffffffffffffffffffffffffffffffffffff163373ffffffffffffffffffffffffffffffffffffffff1614612da7576040517f08c379a0000000000000000000000000000000000000000000000000000000008152600401612d9e90615957565b60405180910390fd5b806101200151158161012001901515908115158152505080600960008481526020019081526020016000206000820151816000015560208201518160010160006101000a81548173ffffffffffffffffffffffffffffffffffffffff021916908373ffffffffffffffffffffffffffffffffffffffff16021790555060408201518160020160006101000a81548173ffffffffffffffffffffffffffffffffffffffff021916908373ffffffffffffffffffffffffffffffffffffffff1602179055506060820151816003016000820151816000019080519060200190612e8f9291906143fb565b506020820151816001019080519060200190612eac9291906143fb565b506040820151816002019080519060200190612ec99291906143fb565b506060820151816003019080519060200190612ee69291906143fb565b5050506080820151816007016000820151816000019080519060200190612f0e9291906143fb565b506020820151816001019080519060200190612f2b9291906143fb565b506040820151816002019080519060200190612f489291906143fb565b506060820151816003019080519060200190612f659291906143fb565b506080820151816004019080519060200190612f829291906143fb565b50505060a082015181600c019080519060200190612fa19291906143fb565b5060c082015181600d019080519060200190612fbe9291906143fb565b5060e082015181600e0160006101000a81548160ff02191690831515021790555061010082015181600f01556101208201518160100160006101000a81548160ff0219169083151502179055509050503373ffffffffffffffffffffffffffffffffffffffff167f7a9897550407322d066ccbd3b6477f102d98389e86084b49704f3bec8f10b25d60405160405180910390a25050565b8073ffffffffffffffffffffffffffffffffffffffff163373ffffffffffffffffffffffffffffffffffffffff16146130c3576040517f08c379a00000000000000000000000000000000000000000000000000000000081526004016130ba906159b7565b60405180910390fd5b6000600860008373ffffffffffffffffffffffffffffffffffffffff1673ffffffffffffffffffffffffffffffffffffffff168152602001908152602001600020604051806101200160405290816000820160009054906101000a900473ffffffffffffffffffffffffffffffffffffffff1673ffffffffffffffffffffffffffffffffffffffff1673ffffffffffffffffffffffffffffffffffffffff16815260200160018201548152602001600282018054600181600116156101000203166002900480601f0160208091040260200160405190810160405280929190818152602001828054600181600116156101000203166002900480156132095780601f106131de57610100808354040283529160200191613209565b820191906000526020600020905b8154815290600101906020018083116131ec57829003601f168201915b50505050508152602001600382018054600181600116156101000203166002900480601f0160208091040260200160405190810160405280929190818152602001828054600181600116156101000203166002900480156132ab5780601f10613280576101008083540402835291602001916132ab565b820191906000526020600020905b81548152906001019060200180831161328e57829003601f168201915b50505050508152602001600482018054600181600116156101000203166002900480601f01602080910402602001604051908101604052809291908181526020018280546001816001161561010002031660029004801561334d5780601f106133225761010080835404028352916020019161334d565b820191906000526020600020905b81548152906001019060200180831161333057829003601f168201915b50505050508152602001600582018054600181600116156101000203166002900480601f0160208091040260200160405190810160405280929190818152602001828054600181600116156101000203166002900480156133ef5780601f106133c4576101008083540402835291602001916133ef565b820191906000526020600020905b8154815290600101906020018083116133d257829003601f168201915b5050505050815260200160068201548152602001600782015481526020016008820160009054906101000a900460ff1615151515815250509050806101000151158161010001901515908115158152505080600860008473ffffffffffffffffffffffffffffffffffffffff1673ffffffffffffffffffffffffffffffffffffffff16815260200190815260200160002060008201518160000160006101000a81548173ffffffffffffffffffffffffffffffffffffffff021916908373ffffffffffffffffffffffffffffffffffffffff1602179055506020820151816001015560408201518160020190805190602001906134ed9291906143fb565b50606082015181600301908051906020019061350a9291906143fb565b5060808201518160040190805190602001906135279291906143fb565b5060a08201518160050190805190602001906135449291906143fb565b5060c0820151816006015560e082015181600701556101008201518160080160006101000a81548160ff021916908315150217905550905050806101000151600a60018360200151038154811061359757fe5b906000526020600020906008020160070160006101000a81548160ff0219169083151502179055503373ffffffffffffffffffffffffffffffffffffffff167f0e11245d33bd68b9d4b0c1927c1c836c0f77da9608578445072cb0be56cf3f5d60405160405180910390a25050565b60055481565b60008211801561361e57506002548211155b61365d576040517f08c379a0000000000000000000000000000000000000000000000000000000008152600401613654906159d7565b60405180910390fd5b60006009600084815260200190815260200160002060405180610140016040529081600082015481526020016001820160009054906101000a900473ffffffffffffffffffffffffffffffffffffffff1673ffffffffffffffffffffffffffffffffffffffff1673ffffffffffffffffffffffffffffffffffffffff1681526020016002820160009054906101000a900473ffffffffffffffffffffffffffffffffffffffff1673ffffffffffffffffffffffffffffffffffffffff1673ffffffffffffffffffffffffffffffffffffffff16815260200160038201604051806080016040529081600082018054600181600116156101000203166002900480601f0160208091040260200160405190810160405280929190818152602001828054600181600116156101000203166002900480156137dd5780601f106137b2576101008083540402835291602001916137dd565b820191906000526020600020905b8154815290600101906020018083116137c057829003601f168201915b50505050508152602001600182018054600181600116156101000203166002900480601f01602080910402602001604051908101604052809291908181526020018280546001816001161561010002031660029004801561387f5780601f106138545761010080835404028352916020019161387f565b820191906000526020600020905b81548152906001019060200180831161386257829003601f168201915b50505050508152602001600282018054600181600116156101000203166002900480601f0160208091040260200160405190810160405280929190818152602001828054600181600116156101000203166002900480156139215780601f106138f657610100808354040283529160200191613921565b820191906000526020600020905b81548152906001019060200180831161390457829003601f168201915b50505050508152602001600382018054600181600116156101000203166002900480601f0160208091040260200160405190810160405280929190818152602001828054600181600116156101000203166002900480156139c35780601f10613998576101008083540402835291602001916139c3565b820191906000526020600020905b8154815290600101906020018083116139a657829003601f168201915b5050505050815250508152602001600782016040518060a0016040529081600082018054600181600116156101000203166002900480601f016020809104026020016040519081016040528092919081815260200182805460018160011615610100020316600290048015613a795780601f10613a4e57610100808354040283529160200191613a79565b820191906000526020600020905b815481529060010190602001808311613a5c57829003601f168201915b50505050508152602001600182018054600181600116156101000203166002900480601f016020809104026020016040519081016040528092919081815260200182805460018160011615610100020316600290048015613b1b5780601f10613af057610100808354040283529160200191613b1b565b820191906000526020600020905b815481529060010190602001808311613afe57829003601f168201915b50505050508152602001600282018054600181600116156101000203166002900480601f016020809104026020016040519081016040528092919081815260200182805460018160011615610100020316600290048015613bbd5780601f10613b9257610100808354040283529160200191613bbd565b820191906000526020600020905b815481529060010190602001808311613ba057829003601f168201915b50505050508152602001600382018054600181600116156101000203166002900480601f016020809104026020016040519081016040528092919081815260200182805460018160011615610100020316600290048015613c5f5780601f10613c3457610100808354040283529160200191613c5f565b820191906000526020600020905b815481529060010190602001808311613c4257829003601f168201915b50505050508152602001600482018054600181600116156101000203166002900480601f016020809104026020016040519081016040528092919081815260200182805460018160011615610100020316600290048015613d015780601f10613cd657610100808354040283529160200191613d01565b820191906000526020600020905b815481529060010190602001808311613ce457829003601f168201915b5050505050815250508152602001600c82018054600181600116156101000203166002900480601f016020809104026020016040519081016040528092919081815260200182805460018160011615610100020316600290048015613da75780601f10613d7c57610100808354040283529160200191613da7565b820191906000526020600020905b815481529060010190602001808311613d8a57829003601f168201915b50505050508152602001600d82018054600181600116156101000203166002900480601f016020809104026020016040519081016040528092919081815260200182805460018160011615610100020316600290048015613e495780601f10613e1e57610100808354040283529160200191613e49565b820191906000526020600020905b815481529060010190602001808311613e2c57829003601f168201915b50505050508152602001600e820160009054906101000a900460ff16151515158152602001600f82015481526020016010820160009054906101000a900460ff16151515158152505090506000816040015190508073ffffffffffffffffffffffffffffffffffffffff163373ffffffffffffffffffffffffffffffffffffffff1614613f0b576040517f08c379a0000000000000000000000000000000000000000000000000000000008152600401613f0290615917565b60405180910390fd5b60055482610100015114613f54576040517f08c379a0000000000000000000000000000000000000000000000000000000008152600401613f4b90615937565b60405180910390fd5b82613f6157600754613f65565b6006545b8261010001818152505081600960008681526020019081526020016000206000820151816000015560208201518160010160006101000a81548173ffffffffffffffffffffffffffffffffffffffff021916908373ffffffffffffffffffffffffffffffffffffffff16021790555060408201518160020160006101000a81548173ffffffffffffffffffffffffffffffffffffffff021916908373ffffffffffffffffffffffffffffffffffffffff16021790555060608201518160030160008201518160000190805190602001906140409291906143fb565b50602082015181600101908051906020019061405d9291906143fb565b50604082015181600201908051906020019061407a9291906143fb565b5060608201518160030190805190602001906140979291906143fb565b50505060808201518160070160008201518160000190805190602001906140bf9291906143fb565b5060208201518160010190805190602001906140dc9291906143fb565b5060408201518160020190805190602001906140f99291906143fb565b5060608201518160030190805190602001906141169291906143fb565b5060808201518160040190805190602001906141339291906143fb565b50505060a082015181600c0190805190602001906141529291906143fb565b5060c082015181600d01908051906020019061416f9291906143fb565b5060e082015181600e0160006101000a81548160ff02191690831515021790555061010082015181600f01556101208201518160100160006101000a81548160ff0219169083151502179055509050508073ffffffffffffffffffffffffffffffffffffffff166108fc6004549081150290604051600060405180830381858888f19350505050158015614207573d6000803e3d6000fd5b5060086000836020015173ffffffffffffffffffffffffffffffffffffffff1673ffffffffffffffffffffffffffffffffffffffff1681526020019081526020016000206006016000815480929190600101919050555060086000836040015173ffffffffffffffffffffffffffffffffffffffff1673ffffffffffffffffffffffffffffffffffffffff16815260200190815260200160002060070160008154809291906001019190505550600a600160086000856020015173ffffffffffffffffffffffffffffffffffffffff1673ffffffffffffffffffffffffffffffffffffffff16815260200190815260200160002060010154038154811061430a57fe5b906000526020600020906008020160050160008154809291906001019190505550600a600160086000856040015173ffffffffffffffffffffffffffffffffffffffff1673ffffffffffffffffffffffffffffffffffffffff16815260200190815260200160002060010154038154811061438157fe5b906000526020600020906008020160060160008154809291906001019190505550816020015173ffffffffffffffffffffffffffffffffffffffff16847f8b6fa8f23057d9bbfe201c86c3da62e13b6808455f900230d6dd5b2efefa6209846040516143ed9190615b97565b60405180910390a350505050565b828054600181600116156101000203166002900490600052602060002090601f0160209004810192826144315760008555614478565b82601f1061444a57805160ff1916838001178555614478565b82800160010185558215614478579182015b8281111561447757825182559160200191906001019061445c565b5b50905061448591906145d9565b5090565b604051806101200160405280600073ffffffffffffffffffffffffffffffffffffffff168152602001600081526020016060815260200160608152602001606081526020016060815260200160008152602001600081526020016000151581525090565b60405180610100016040528060008152602001600073ffffffffffffffffffffffffffffffffffffffff16815260200160608152602001606081526020016060815260200160008152602001600081526020016000151581525090565b60405180610140016040528060008152602001600073ffffffffffffffffffffffffffffffffffffffff168152602001600073ffffffffffffffffffffffffffffffffffffffff16815260200161459f6145f6565b81526020016145ac61461e565b81526020016060815260200160608152602001600015158152602001600081526020016000151581525090565b5b808211156145f25760008160009055506001016145da565b5090565b6040518060800160405280606081526020016060815260200160608152602001606081525090565b6040518060a0016040528060608152602001606081526020016060815260200160608152602001606081525090565b600061466061465b84615d94565b615d63565b90508281526020810184848401111561467857600080fd5b614683848285615ec9565b509392505050565b60008135905061469a81615f79565b92915050565b6000813590506146af81615f90565b92915050565b600082601f8301126146c657600080fd5b81356146d684826020860161464d565b91505092915050565b6000813590506146ee81615fa7565b92915050565b60006020828403121561470657600080fd5b60006147148482850161468b565b91505092915050565b6000806040838503121561473057600080fd5b600061473e8582860161468b565b925050602083013567ffffffffffffffff81111561475b57600080fd5b614767858286016146b5565b9150509250929050565b60008060008060008060c0878903121561478a57600080fd5b600061479889828a0161468b565b965050602087013567ffffffffffffffff8111156147b557600080fd5b6147c189828a016146b5565b955050604087013567ffffffffffffffff8111156147de57600080fd5b6147ea89828a016146b5565b945050606087013567ffffffffffffffff81111561480757600080fd5b61481389828a016146b5565b935050608087013567ffffffffffffffff81111561483057600080fd5b61483c89828a016146b5565b92505060a061484d89828a016146a0565b9150509295509295509295565b6000806000806000806000806000806101408b8d03121561487a57600080fd5b60008b013567ffffffffffffffff81111561489457600080fd5b6148a08d828e016146b5565b9a505060208b013567ffffffffffffffff8111156148bd57600080fd5b6148c98d828e016146b5565b99505060408b013567ffffffffffffffff8111156148e657600080fd5b6148f28d828e016146b5565b98505060608b013567ffffffffffffffff81111561490f57600080fd5b61491b8d828e016146b5565b97505060808b013567ffffffffffffffff81111561493857600080fd5b6149448d828e016146b5565b96505060a08b013567ffffffffffffffff81111561496157600080fd5b61496d8d828e016146b5565b95505060c08b013567ffffffffffffffff81111561498a57600080fd5b6149968d828e016146b5565b94505060e08b013567ffffffffffffffff8111156149b357600080fd5b6149bf8d828e016146b5565b9350506101006149d18d828e0161468b565b9250506101206149e38d828e016146a0565b9150509295989b9194979a5092959850565b600060208284031215614a0757600080fd5b6000614a15848285016146df565b91505092915050565b60008060408385031215614a3157600080fd5b6000614a3f858286016146df565b9250506020614a50858286016146a0565b9150509250929050565b6000614a6683836155c6565b905092915050565b614a7781615e81565b82525050565b614a8681615e81565b82525050565b6000614a9782615de9565b614aa18185615e0c565b935083602082028501614ab385615dc4565b8060005b85811015614aef5784840389528151614ad08582614a5a565b9450614adb83615dff565b925060208a01995050600181019050614ab7565b50829750879550505050505092915050565b614b0a81615e93565b82525050565b614b1981615e93565b82525050565b6000614b2a82615df4565b614b348185615e1d565b9350614b44818560208601615ed8565b614b4d81615f5b565b840191505092915050565b6000614b6382615df4565b614b6d8185615e2e565b9350614b7d818560208601615ed8565b614b8681615f5b565b840191505092915050565b6000614b9c82615df4565b614ba68185615e3f565b9350614bb6818560208601615ed8565b80840191505092915050565b600081546001811660008114614bdf5760018114614c0557614c49565b607f6002830416614bf08187615e1d565b955060ff198316865260208601935050614c49565b60028204614c138187615e1d565b9550614c1e85615dd4565b60005b82811015614c4057815481890152600182019150602081019050614c21565b80880195505050505b505092915050565b600081546001811660008114614c6e5760018114614c9357614cd7565b607f6002830416614c7f8187615e3f565b955060ff1983168652808601935050614cd7565b60028204614ca18187615e3f565b9550614cac85615dd4565b60005b82811015614cce57815481890152600182019150602081019050614caf565b82880195505050505b505092915050565b6000614cec602c83615e2e565b91507f5265636f72642073686f756c6420626520766572696669656420627920636f7260008301527f72656374206164647265737300000000000000000000000000000000000000006020830152604082019050919050565b6000614d52602c83615e2e565b91507f5265636f72642073686f756c64206e6f74206265207665726966696564206f7260008301527f20646973617070726f76656400000000000000000000000000000000000000006020830152604082019050919050565b6000614db8602483615e2e565b91507f4f6e6c7920746865206f776e65722063616e206368616e67652074686520737460008301527f61747573000000000000000000000000000000000000000000000000000000006020830152604082019050919050565b6000614e1e601883615e2e565b91507f6163636f756e742063616e206e6f7420626520656d70747900000000000000006000830152602082019050919050565b6000614e5e601a83615e2e565b91507f6163636f756e742063616e206e6f7420626520657869737465640000000000006000830152602082019050919050565b6000614e9e602c83615e2e565b91507f6f6e6c7920746865206163636f756e74206f776e65722063616e206368616e6760008301527f65207468652073746174757300000000000000000000000000000000000000006020830152604082019050919050565b6000614f04601383615e2e565b91507f5265636f72642073686f756c64206578697374000000000000000000000000006000830152602082019050919050565b6000614f44601a83615e2e565b91507f456e64204d6f6e746820596561722069732072657175697265640000000000006000830152602082019050919050565b6000614f84600f83615e2e565b91507f57726f6e672070617373776f72642100000000000000000000000000000000006000830152602082019050919050565b6000614fc4601683615e2e565b91507f5061796d656e742073686f756c6420626520676f6f64000000000000000000006000830152602082019050919050565b6000615004602283615e2e565b91507f56616c696420766572696669657220616464726573732069732072657175697260008301527f65640000000000000000000000000000000000000000000000000000000000006020830152604082019050919050565b600061506a601983615e2e565b91507f70617373776f72642063616e206e6f7420626520656d707479000000000000006000830152602082019050919050565b60006150aa601483615e2e565b91507f506f736974696f6e2069732072657175697265640000000000000000000000006000830152602082019050919050565b60006150ea601783615e2e565b91507f446567726565204e616d652069732072657175697265640000000000000000006000830152602082019050919050565b600061512a601c83615e2e565b91507f5374617274204d6f6e74682059656172206973207265717569726564000000006000830152602082019050919050565b600061516a600e83615e2e565b91507f49642069732072657175697265640000000000000000000000000000000000006000830152602082019050919050565b60006151aa601583615e2e565b91507f6e616d652063616e206e6f7420626520656d70747900000000000000000000006000830152602082019050919050565b60006151ea603183615e2e565b91507f6f6e6c7920746865206163636f756e74206f776e65722063616e206368616e6760008301527f6520746865206465736372697074696f6e0000000000000000000000000000006020830152604082019050919050565b6000615250601483615e2e565b91507f4f7267204e616d652069732072657175697265640000000000000000000000006000830152602082019050919050565b6000615290601683615e2e565b91507f656d61696c2063616e206e6f7420626520656d707479000000000000000000006000830152602082019050919050565b600060a08301600083015184820360008601526152e08282614b1f565b915050602083015184820360208601526152fa8282614b1f565b915050604083015184820360408601526153148282614b1f565b9150506060830151848203606086015261532e8282614b1f565b915050608083015184820360808601526153488282614b1f565b9150508091505092915050565b600060a08301600083015184820360008601526153728282614b1f565b9150506020830151848203602086015261538c8282614b1f565b915050604083015184820360408601526153a68282614b1f565b915050606083015184820360608601526153c08282614b1f565b915050608083015184820360808601526153da8282614b1f565b9150508091505092915050565b600060808301600083015184820360008601526154048282614b1f565b9150506020830151848203602086015261541e8282614b1f565b915050604083015184820360408601526154388282614b1f565b915050606083015184820360608601526154528282614b1f565b9150508091505092915050565b6000608083016000830151848203600086015261547c8282614b1f565b915050602083015184820360208601526154968282614b1f565b915050604083015184820360408601526154b08282614b1f565b915050606083015184820360608601526154ca8282614b1f565b9150508091505092915050565b6000610140830160008301516154f0600086018261586c565b5060208301516155036020860182614a6e565b5060408301516155166040860182614a6e565b506060830151848203606086015261552e82826153e7565b9150506080830151848203608086015261554882826152c3565b91505060a083015184820360a08601526155628282614b1f565b91505060c083015184820360c086015261557c8282614b1f565b91505060e083015161559160e0860182614b01565b506101008301516155a661010086018261586c565b506101208301516155bb610120860182614b01565b508091505092915050565b6000610100830160008301516155df600086018261586c565b5060208301516155f26020860182614a6e565b506040830151848203604086015261560a8282614b1f565b915050606083015184820360608601526156248282614b1f565b9150506080830151848203608086015261563e8282614b1f565b91505060a083015161565360a086018261586c565b5060c083015161566660c086018261586c565b5060e083015161567960e0860182614b01565b508091505092915050565b60006101208301600083015161569d6000860182614a6e565b5060208301516156b0602086018261586c565b50604083015184820360408601526156c88282614b1f565b915050606083015184820360608601526156e28282614b1f565b915050608083015184820360808601526156fc8282614b1f565b91505060a083015184820360a08601526157168282614b1f565b91505060c083015161572b60c086018261586c565b5060e083015161573e60e086018261586c565b50610100830151615753610100860182614b01565b508091505092915050565b60006101208301600080840154905061577681615f0b565b6157836000870182614a6e565b506001840154905061579481615f3f565b6157a1602087018261586c565b506002840185830360408701526157b88382614bc2565b9250506003840185830360608701526157d18382614bc2565b9250506004840185830360808701526157ea8382614bc2565b9250506005840185830360a08701526158038382614bc2565b9250506006840154905061581681615f3f565b61582360c087018261586c565b506007840154905061583481615f3f565b61584160e087018261586c565b506008840154905061585281615f25565b615860610100870182614b01565b50819250505092915050565b61587581615ebf565b82525050565b61588481615ebf565b82525050565b60006158968284614b91565b915081905092915050565b60006158ad8284614c51565b915081905092915050565b600060208201905081810360008301526158d28184614a8c565b905092915050565b60006020820190506158ef6000830184614b10565b92915050565b6000602082019050818103600083015261590f8184614b58565b905092915050565b6000602082019050818103600083015261593081614cdf565b9050919050565b6000602082019050818103600083015261595081614d45565b9050919050565b6000602082019050818103600083015261597081614dab565b9050919050565b6000602082019050818103600083015261599081614e11565b9050919050565b600060208201905081810360008301526159b081614e51565b9050919050565b600060208201905081810360008301526159d081614e91565b9050919050565b600060208201905081810360008301526159f081614ef7565b9050919050565b60006020820190508181036000830152615a1081614f37565b9050919050565b60006020820190508181036000830152615a3081614f77565b9050919050565b60006020820190508181036000830152615a5081614fb7565b9050919050565b60006020820190508181036000830152615a7081614ff7565b9050919050565b60006020820190508181036000830152615a908161505d565b9050919050565b60006020820190508181036000830152615ab08161509d565b9050919050565b60006020820190508181036000830152615ad0816150dd565b9050919050565b60006020820190508181036000830152615af08161511d565b9050919050565b60006020820190508181036000830152615b108161515d565b9050919050565b60006020820190508181036000830152615b308161519d565b9050919050565b60006020820190508181036000830152615b50816151dd565b9050919050565b60006020820190508181036000830152615b7081615243565b9050919050565b60006020820190508181036000830152615b9081615283565b9050919050565b60006020820190508181036000830152615bb181846154d7565b905092915050565b60006020820190508181036000830152615bd38184615684565b905092915050565b60006020820190508181036000830152615bf5818461575e565b905092915050565b6000602082019050615c12600083018461587b565b92915050565b600061014082019050615c2e600083018d61587b565b615c3b602083018c614a7d565b615c48604083018b614a7d565b8181036060830152615c5a818a61545f565b90508181036080830152615c6e8189615355565b905081810360a0830152615c828188614b58565b905081810360c0830152615c968187614b58565b9050615ca560e0830186614b10565b615cb361010083018561587b565b615cc1610120830184614b10565b9b9a5050505050505050505050565b600061010082019050615ce6600083018b61587b565b615cf3602083018a614a7d565b8181036040830152615d058189614b58565b90508181036060830152615d198188614b58565b90508181036080830152615d2d8187614b58565b9050615d3c60a083018661587b565b615d4960c083018561587b565b615d5660e0830184614b10565b9998505050505050505050565b6000604051905081810181811067ffffffffffffffff82111715615d8a57615d89615f59565b5b8060405250919050565b600067ffffffffffffffff821115615daf57615dae615f59565b5b601f19601f8301169050602081019050919050565b6000819050602082019050919050565b60008190508160005260206000209050919050565b600081519050919050565b600081519050919050565b6000602082019050919050565b600082825260208201905092915050565b600082825260208201905092915050565b600082825260208201905092915050565b600081905092915050565b600073ffffffffffffffffffffffffffffffffffffffff82169050919050565b600060ff82169050919050565b6000819050919050565b6000615e8c82615e9f565b9050919050565b60008115159050919050565b600073ffffffffffffffffffffffffffffffffffffffff82169050919050565b6000819050919050565b82818337600083830152505050565b60005b83811015615ef6578082015181840152602081019050615edb565b83811115615f05576000848401525b50505050565b6000615f1e615f1983615f6c565b615e4a565b9050919050565b6000615f38615f3383615f6c565b615e6a565b9050919050565b6000615f52615f4d83615f6c565b615e77565b9050919050565bfe5b6000601f19601f8301169050919050565b60008160001c9050919050565b615f8281615e81565b8114615f8d57600080fd5b50565b615f9981615e93565b8114615fa457600080fd5b50565b615fb081615ebf565b8114615fbb57600080fd5b5056fea2646970667358221220baab49d2f705a1d7213e91914d070e30feb3563e2efae0aaf461b0423ee1270764736f6c63430007060033",
  "immutableReferences": {},
  "source": "//SPDX-License-Identifier: UNLICENSED\npragma solidity ^0.7.6;\npragma abicoder v2;\n\ncontract EthCV {\n    string public appName;\n    uint256 public totalUserNumber = 0;\n    uint256 public totalNumber = 0;\n    uint256 public recordAddPrice = 1 ether;\n    uint256 public recordVerifyAward = 0.8 ether;\n\n    uint256 public UNVERIFIED_CODE = 0;\n    uint256 public APPROVE_CODE = 1;\n    uint256 public DISAPPROVE_CODE = 2;\n\n    mapping(address => User) private users;\n    mapping(uint256 => Record) public records;\n\n    UserForSearch[] public usersForSearch;\n\n    struct User {\n        address payable userAddress;\n        uint256 userId;\n        string fullName;\n        string email;\n        string password;\n        string selfDescription;\n        // whenever a record is verified, find the verifier and owner and change below numbers (changes in verify required!)\n        uint256 verifiedByNum; // count the time the user's experiences verified by others\n        uint256 hasVerifiedNum; // count the number of user verifying others\n        bool isLookingForJobs; // change the status to true if actively looking for jobs\n    }\n\n    struct UserForSearch {\n        uint256 userId;\n        address payable userAddress;\n        string fullName;\n        string email;\n        string selfDescription;\n        uint256 verifiedByNum; // count the time the user's experiences verified by others\n        uint256 hasVerifiedNum;\n        bool isLookingForJobs;\n    }\n\n    struct Record {\n        uint256 recordId;\n        address payable recordOwner;\n        address payable verifier;\n        Experience experience;\n        Education education;\n        string startMonthYear;\n        string endMonthYear;\n        bool isEducation;\n        // 0: not verified 1: verified 2: disapprove\n        uint256 status;\n        bool isActive; // we can keep this in case we need it?\n    }\n\n    struct Experience {\n        // workID\n        string uId;\n        // company\n        string orgName;\n        string position;\n        string description;\n    }\n\n    struct Education {\n        // studentID\n        string uId;\n        // school\n        string orgName;\n        string degreeName;\n        string fieldsOfStudy;\n        string description;\n    }\n\n    event RecordCreated(\n        uint256 indexed recordId,\n        address payable indexed recordOwner,\n        Record record\n    );\n\n    event RecordVerified(\n        uint256 indexed recordId,\n        address payable indexed recordOwner,\n        Record record\n    );\n\n    event StatusChanged(address payable indexed recordOwner);\n\n    event LoginSuccess(User user);\n\n    event LoginFail(string message);\n\t\n\tevent DescriptionChanged(address indexed recordOwner);\n\t\n\tevent JobStatusChanged(address indexed recordOwner);\n\n    constructor() {\n        appName = \"EECE571 ETHCV.COM\";\n    }\n\n    // Register an account (link a metamask account to an password)\n    function Register(\n        address payable _ethAccount,\n        string memory _fullName,\n        string memory _email,\n        string memory _password,\n        string memory _selfDescription,\n        bool _isLookingForJobs\n    ) public returns (bool) {\n        require(_ethAccount != address(0), \"account can not be empty\");\n        require(users[_ethAccount].userId == 0, \"account can not be existed\");\n        require(bytes(_fullName).length > 0, \"name can not be empty\");\n        require(bytes(_email).length > 0, \"email can not be empty\");\n        require(bytes(_password).length > 0, \"password can not be empty\");\n        User memory _user;\n        totalUserNumber++;\n        _user.userId = totalUserNumber;\n        _user.userAddress = _ethAccount;\n        _user.fullName = _fullName;\n        _user.email = _email;\n        _user.password = _password;\n        _user.selfDescription = _selfDescription;\n        _user.isLookingForJobs = _isLookingForJobs;\n        users[_ethAccount] = _user;\n\n        UserForSearch memory _userForSearch;\n        _userForSearch.fullName = _fullName;\n        _userForSearch.userAddress = _ethAccount;\n        _userForSearch.userId = totalUserNumber;\n        _userForSearch.isLookingForJobs = _isLookingForJobs;\n        _userForSearch.email = _email;\n        _userForSearch.selfDescription = _selfDescription;\n        usersForSearch.push(_userForSearch);\n        emit LoginSuccess(_user);\n        return true;\n    }\n\n    /**\n     * input address and password\n     * if they match, return true, otherwise return false.\n     * front end can get this bool and decide what page the user is going to enter\n     */\n    function Login(address payable _ethAccount, string memory _password)\n        public returns (bool)\n    {\n        require(_ethAccount != address(0), \"account can not be empty\");\n        if (\n            keccak256(abi.encodePacked(users[_ethAccount].password)) ==\n            keccak256(abi.encodePacked(_password))\n        ) {\n            emit LoginSuccess(users[_ethAccount]);\n            return true;\n        }\n        emit LoginFail(\"Wrong password!\");\n        return false;\n    }\n\n    //change the self description\n    function changeDescription(\n        address payable _accountAddress,\n        string memory _description\n    ) public {\n        require(\n            msg.sender == _accountAddress,\n            \"only the account owner can change the description\"\n        );\n        User memory _user = users[_accountAddress];\n        _user.selfDescription = _description;\n        users[_accountAddress] = _user;\n\t\temit DescriptionChanged(msg.sender);\n    }\n\n    //change the job seeking status\n    function changeJobStatus(address payable _accountAddress) public {\n        require(\n            msg.sender == _accountAddress,\n            \"only the account owner can change the status\"\n        );\n        User memory _user = users[_accountAddress];\n        _user.isLookingForJobs = !_user.isLookingForJobs;\n        users[_accountAddress] = _user;\n\n        usersForSearch[_user.userId - 1].isLookingForJobs = _user\n            .isLookingForJobs;\n\t\temit JobStatusChanged(msg.sender);\n    }\n\n    // create a record\n    function createRecord(\n        string memory _uId,\n        string memory _orgName,\n        string memory _position,\n        string memory _description,\n        string memory _startMonthYear,\n        string memory _endMonthYear,\n        string memory _degreeName,\n        string memory _fieldsOfStudy,\n        address payable _verifier,\n        bool _isEducation\n    ) public payable {\n        require(\n            _verifier != address(0) && msg.sender != _verifier,\n            \"Valid verifier address is required\"\n        );\n        require(\n            bytes(_startMonthYear).length > 0,\n            \"Start Month Year is required\"\n        );\n        require(bytes(_endMonthYear).length > 0, \"End Month Year is required\");\n        // check payment\n        require(msg.value >= recordAddPrice, \"Payment should be good\");\n        require(bytes(_uId).length > 0, \"Id is required\");\n        require(bytes(_orgName).length > 0, \"Org Name is required\");\n        Record memory _record;\n        if (!_isEducation) {\n            require(bytes(_position).length > 0, \"Position is required\");\n            _record.experience = Experience(\n                _uId,\n                _orgName,\n                _position,\n                _description\n            );\n        } else {\n            require(bytes(_degreeName).length > 0, \"Degree Name is required\");\n            _record.education = Education(\n                _uId,\n                _orgName,\n                _degreeName,\n                _fieldsOfStudy,\n                _description\n            );\n        }\n\n        totalNumber++;\n        _record.recordId = totalNumber;\n        _record.recordOwner = msg.sender;\n        _record.verifier = _verifier;\n        _record.isEducation = _isEducation;\n        _record.status = UNVERIFIED_CODE;\n        _record.isActive = true;\n        records[totalNumber] = _record;\n        emit RecordCreated(totalNumber, msg.sender, _record);\n    }\n\n    // verify a record, true: approve, false: disapprove\n    function verifyRecord(uint256 _recordId, bool _isApproved) public payable {\n        require(\n            _recordId > 0 && _recordId <= totalNumber,\n            \"Record should exist\"\n        );\n        Record memory _record = records[_recordId];\n        address payable _verifier = _record.verifier;\n        require(\n            msg.sender == _verifier,\n            \"Record should be verified by correct address\"\n        );\n        require(\n            _record.status == UNVERIFIED_CODE,\n            \"Record should not be verified or disapproved\"\n        );\n\n        // verify it\n        _record.status = _isApproved ? APPROVE_CODE : DISAPPROVE_CODE;\n        records[_recordId] = _record;\n        _verifier.transfer(recordVerifyAward);\n        // uint verifiedByNum; uint hasVerifiedNum;\n        users[_record.recordOwner].verifiedByNum++;\n        users[_record.verifier].hasVerifiedNum++;\n        usersForSearch[users[_record.recordOwner].userId - 1].verifiedByNum++;\n        usersForSearch[users[_record.verifier].userId - 1].hasVerifiedNum++;\n        emit RecordVerified(_recordId, _record.recordOwner, _record);\n    }\n\n    //change a specific record status, true means others can see the record, false means they can not\n    function changeStatus(uint256 _recordId) public {\n        require(\n            _recordId > 0 && _recordId <= totalNumber,\n            \"Record should exist\"\n        );\n        Record memory _record = records[_recordId];\n        require(\n            msg.sender == _record.recordOwner,\n            \"Only the owner can change the status\"\n        );\n        _record.isActive = !_record.isActive;\n        records[_recordId] = _record;\n        emit StatusChanged(msg.sender);\n    }\n\n    function getAllUsers() public view returns (UserForSearch[] memory) {\n        return usersForSearch;\n    }\n}\n",
  "sourcePath": "/home/melonbun/workspace/eece571g/project/contracts/EthCV.sol",
  "compiler": {
    "name": "solc",
    "version": "0.7.6+commit.7338295f.Emscripten.clang"
  },
  "schemaVersion": "3.3.4",
  "updatedAt": "2021-04-01T03:57:10.556Z",
  "networkType": "ethereum",
  "devdoc": {
    "kind": "dev",
    "methods": {},
    "version": 1
  },
  "userdoc": {
    "kind": "user",
    "methods": {
      "Login(address,string)": {
        "notice": "input address and password if they match, return true, otherwise return false. front end can get this bool and decide what page the user is going to enter"
      }
    },
    "version": 1
  }
}