{
  "contractName": "EthCV",
  "abi": [
    {
      "inputs": [],
      "stateMutability": "nonpayable",
      "type": "constructor"
    },
    {
      "anonymous": false,
      "inputs": [
        {
          "indexed": true,
          "internalType": "address",
          "name": "recordOwner",
          "type": "address"
        }
      ],
      "name": "DescriptionChanged",
      "type": "event"
    },
    {
      "anonymous": false,
      "inputs": [
        {
          "indexed": true,
          "internalType": "address",
          "name": "recordOwner",
          "type": "address"
        }
      ],
      "name": "JobStatusChanged",
      "type": "event"
    },
    {
      "anonymous": false,
      "inputs": [
        {
          "indexed": false,
          "internalType": "string",
          "name": "message",
          "type": "string"
        }
      ],
      "name": "LoginFail",
      "type": "event"
    },
    {
      "anonymous": false,
      "inputs": [
        {
          "components": [
            {
              "internalType": "address payable",
              "name": "userAddress",
              "type": "address"
            },
            {
              "internalType": "uint256",
              "name": "userId",
              "type": "uint256"
            },
            {
              "internalType": "string",
              "name": "fullName",
              "type": "string"
            },
            {
              "internalType": "string",
              "name": "email",
              "type": "string"
            },
            {
              "internalType": "string",
              "name": "password",
              "type": "string"
            },
            {
              "internalType": "string",
              "name": "selfDescription",
              "type": "string"
            },
            {
              "internalType": "uint256",
              "name": "verifiedByNum",
              "type": "uint256"
            },
            {
              "internalType": "uint256",
              "name": "hasVerifiedNum",
              "type": "uint256"
            },
            {
              "internalType": "bool",
              "name": "isLookingForJobs",
              "type": "bool"
            }
          ],
          "indexed": false,
          "internalType": "struct EthCV.User",
          "name": "user",
          "type": "tuple"
        }
      ],
      "name": "LoginSuccess",
      "type": "event"
    },
    {
      "anonymous": false,
      "inputs": [
        {
          "indexed": true,
          "internalType": "uint256",
          "name": "recordId",
          "type": "uint256"
        },
        {
          "indexed": true,
          "internalType": "address payable",
          "name": "recordOwner",
          "type": "address"
        },
        {
          "components": [
            {
              "internalType": "uint256",
              "name": "recordId",
              "type": "uint256"
            },
            {
              "internalType": "address payable",
              "name": "recordOwner",
              "type": "address"
            },
            {
              "internalType": "address payable",
              "name": "verifier",
              "type": "address"
            },
            {
              "components": [
                {
                  "internalType": "string",
                  "name": "uId",
                  "type": "string"
                },
                {
                  "internalType": "string",
                  "name": "orgName",
                  "type": "string"
                },
                {
                  "internalType": "string",
                  "name": "position",
                  "type": "string"
                },
                {
                  "internalType": "string",
                  "name": "description",
                  "type": "string"
                }
              ],
              "internalType": "struct EthCV.Experience",
              "name": "experience",
              "type": "tuple"
            },
            {
              "components": [
                {
                  "internalType": "string",
                  "name": "uId",
                  "type": "string"
                },
                {
                  "internalType": "string",
                  "name": "orgName",
                  "type": "string"
                },
                {
                  "internalType": "string",
                  "name": "degreeName",
                  "type": "string"
                },
                {
                  "internalType": "string",
                  "name": "fieldsOfStudy",
                  "type": "string"
                },
                {
                  "internalType": "string",
                  "name": "description",
                  "type": "string"
                }
              ],
              "internalType": "struct EthCV.Education",
              "name": "education",
              "type": "tuple"
            },
            {
              "internalType": "string",
              "name": "startMonthYear",
              "type": "string"
            },
            {
              "internalType": "string",
              "name": "endMonthYear",
              "type": "string"
            },
            {
              "internalType": "bool",
              "name": "isEducation",
              "type": "bool"
            },
            {
              "internalType": "uint256",
              "name": "status",
              "type": "uint256"
            },
            {
              "internalType": "bool",
              "name": "isActive",
              "type": "bool"
            }
          ],
          "indexed": false,
          "internalType": "struct EthCV.Record",
          "name": "record",
          "type": "tuple"
        }
      ],
      "name": "RecordCreated",
      "type": "event"
    },
    {
      "anonymous": false,
      "inputs": [
        {
          "indexed": true,
          "internalType": "uint256",
          "name": "recordId",
          "type": "uint256"
        },
        {
          "indexed": true,
          "internalType": "address payable",
          "name": "recordOwner",
          "type": "address"
        },
        {
          "components": [
            {
              "internalType": "uint256",
              "name": "recordId",
              "type": "uint256"
            },
            {
              "internalType": "address payable",
              "name": "recordOwner",
              "type": "address"
            },
            {
              "internalType": "address payable",
              "name": "verifier",
              "type": "address"
            },
            {
              "components": [
                {
                  "internalType": "string",
                  "name": "uId",
                  "type": "string"
                },
                {
                  "internalType": "string",
                  "name": "orgName",
                  "type": "string"
                },
                {
                  "internalType": "string",
                  "name": "position",
                  "type": "string"
                },
                {
                  "internalType": "string",
                  "name": "description",
                  "type": "string"
                }
              ],
              "internalType": "struct EthCV.Experience",
              "name": "experience",
              "type": "tuple"
            },
            {
              "components": [
                {
                  "internalType": "string",
                  "name": "uId",
                  "type": "string"
                },
                {
                  "internalType": "string",
                  "name": "orgName",
                  "type": "string"
                },
                {
                  "internalType": "string",
                  "name": "degreeName",
                  "type": "string"
                },
                {
                  "internalType": "string",
                  "name": "fieldsOfStudy",
                  "type": "string"
                },
                {
                  "internalType": "string",
                  "name": "description",
                  "type": "string"
                }
              ],
              "internalType": "struct EthCV.Education",
              "name": "education",
              "type": "tuple"
            },
            {
              "internalType": "string",
              "name": "startMonthYear",
              "type": "string"
            },
            {
              "internalType": "string",
              "name": "endMonthYear",
              "type": "string"
            },
            {
              "internalType": "bool",
              "name": "isEducation",
              "type": "bool"
            },
            {
              "internalType": "uint256",
              "name": "status",
              "type": "uint256"
            },
            {
              "internalType": "bool",
              "name": "isActive",
              "type": "bool"
            }
          ],
          "indexed": false,
          "internalType": "struct EthCV.Record",
          "name": "record",
          "type": "tuple"
        }
      ],
      "name": "RecordVerified",
      "type": "event"
    },
    {
      "anonymous": false,
      "inputs": [
        {
          "indexed": true,
          "internalType": "address payable",
          "name": "recordOwner",
          "type": "address"
        }
      ],
      "name": "StatusChanged",
      "type": "event"
    },
    {
      "inputs": [],
      "name": "APPROVE_CODE",
      "outputs": [
        {
          "internalType": "uint256",
          "name": "",
          "type": "uint256"
        }
      ],
      "stateMutability": "view",
      "type": "function",
      "constant": true
    },
    {
      "inputs": [],
      "name": "DISAPPROVE_CODE",
      "outputs": [
        {
          "internalType": "uint256",
          "name": "",
          "type": "uint256"
        }
      ],
      "stateMutability": "view",
      "type": "function",
      "constant": true
    },
    {
      "inputs": [],
      "name": "UNVERIFIED_CODE",
      "outputs": [
        {
          "internalType": "uint256",
          "name": "",
          "type": "uint256"
        }
      ],
      "stateMutability": "view",
      "type": "function",
      "constant": true
    },
    {
      "inputs": [],
      "name": "appName",
      "outputs": [
        {
          "internalType": "string",
          "name": "",
          "type": "string"
        }
      ],
      "stateMutability": "view",
      "type": "function",
      "constant": true
    },
    {
      "inputs": [],
      "name": "recordAddPrice",
      "outputs": [
        {
          "internalType": "uint256",
          "name": "",
          "type": "uint256"
        }
      ],
      "stateMutability": "view",
      "type": "function",
      "constant": true
    },
    {
      "inputs": [],
      "name": "recordVerifyAward",
      "outputs": [
        {
          "internalType": "uint256",
          "name": "",
          "type": "uint256"
        }
      ],
      "stateMutability": "view",
      "type": "function",
      "constant": true
    },
    {
      "inputs": [
        {
          "internalType": "uint256",
          "name": "",
          "type": "uint256"
        }
      ],
      "name": "records",
      "outputs": [
        {
          "internalType": "uint256",
          "name": "recordId",
          "type": "uint256"
        },
        {
          "internalType": "address payable",
          "name": "recordOwner",
          "type": "address"
        },
        {
          "internalType": "address payable",
          "name": "verifier",
          "type": "address"
        },
        {
          "components": [
            {
              "internalType": "string",
              "name": "uId",
              "type": "string"
            },
            {
              "internalType": "string",
              "name": "orgName",
              "type": "string"
            },
            {
              "internalType": "string",
              "name": "position",
              "type": "string"
            },
            {
              "internalType": "string",
              "name": "description",
              "type": "string"
            }
          ],
          "internalType": "struct EthCV.Experience",
          "name": "experience",
          "type": "tuple"
        },
        {
          "components": [
            {
              "internalType": "string",
              "name": "uId",
              "type": "string"
            },
            {
              "internalType": "string",
              "name": "orgName",
              "type": "string"
            },
            {
              "internalType": "string",
              "name": "degreeName",
              "type": "string"
            },
            {
              "internalType": "string",
              "name": "fieldsOfStudy",
              "type": "string"
            },
            {
              "internalType": "string",
              "name": "description",
              "type": "string"
            }
          ],
          "internalType": "struct EthCV.Education",
          "name": "education",
          "type": "tuple"
        },
        {
          "internalType": "string",
          "name": "startMonthYear",
          "type": "string"
        },
        {
          "internalType": "string",
          "name": "endMonthYear",
          "type": "string"
        },
        {
          "internalType": "bool",
          "name": "isEducation",
          "type": "bool"
        },
        {
          "internalType": "uint256",
          "name": "status",
          "type": "uint256"
        },
        {
          "internalType": "bool",
          "name": "isActive",
          "type": "bool"
        }
      ],
      "stateMutability": "view",
      "type": "function",
      "constant": true
    },
    {
      "inputs": [],
      "name": "totalNumber",
      "outputs": [
        {
          "internalType": "uint256",
          "name": "",
          "type": "uint256"
        }
      ],
      "stateMutability": "view",
      "type": "function",
      "constant": true
    },
    {
      "inputs": [],
      "name": "totalUserNumber",
      "outputs": [
        {
          "internalType": "uint256",
          "name": "",
          "type": "uint256"
        }
      ],
      "stateMutability": "view",
      "type": "function",
      "constant": true
    },
    {
      "inputs": [
        {
          "internalType": "uint256",
          "name": "",
          "type": "uint256"
        }
      ],
      "name": "usersForSearch",
      "outputs": [
        {
          "internalType": "uint256",
          "name": "userId",
          "type": "uint256"
        },
        {
          "internalType": "address payable",
          "name": "userAddress",
          "type": "address"
        },
        {
          "internalType": "string",
          "name": "fullName",
          "type": "string"
        },
        {
          "internalType": "string",
          "name": "email",
          "type": "string"
        },
        {
          "internalType": "string",
          "name": "selfDescription",
          "type": "string"
        },
        {
          "internalType": "uint256",
          "name": "verifiedByNum",
          "type": "uint256"
        },
        {
          "internalType": "uint256",
          "name": "hasVerifiedNum",
          "type": "uint256"
        },
        {
          "internalType": "bool",
          "name": "isLookingForJobs",
          "type": "bool"
        }
      ],
      "stateMutability": "view",
      "type": "function",
      "constant": true
    },
    {
      "inputs": [
        {
          "internalType": "address payable",
          "name": "_ethAccount",
          "type": "address"
        },
        {
          "internalType": "string",
          "name": "_fullName",
          "type": "string"
        },
        {
          "internalType": "string",
          "name": "_email",
          "type": "string"
        },
        {
          "internalType": "string",
          "name": "_password",
          "type": "string"
        },
        {
          "internalType": "string",
          "name": "_selfDescription",
          "type": "string"
        },
        {
          "internalType": "bool",
          "name": "_isLookingForJobs",
          "type": "bool"
        }
      ],
      "name": "Register",
      "outputs": [],
      "stateMutability": "nonpayable",
      "type": "function"
    },
    {
      "inputs": [
        {
          "internalType": "address payable",
          "name": "_ethAccount",
          "type": "address"
        },
        {
          "internalType": "string",
          "name": "_password",
          "type": "string"
        }
      ],
      "name": "Login",
      "outputs": [],
      "stateMutability": "nonpayable",
      "type": "function"
    },
    {
      "inputs": [
        {
          "internalType": "address payable",
          "name": "_accountAddress",
          "type": "address"
        },
        {
          "internalType": "string",
          "name": "_description",
          "type": "string"
        }
      ],
      "name": "changeDescription",
      "outputs": [],
      "stateMutability": "nonpayable",
      "type": "function"
    },
    {
      "inputs": [
        {
          "internalType": "address payable",
          "name": "_accountAddress",
          "type": "address"
        }
      ],
      "name": "changeJobStatus",
      "outputs": [],
      "stateMutability": "nonpayable",
      "type": "function"
    },
    {
      "inputs": [
        {
          "internalType": "string",
          "name": "_uId",
          "type": "string"
        },
        {
          "internalType": "string",
          "name": "_orgName",
          "type": "string"
        },
        {
          "internalType": "string",
          "name": "_position",
          "type": "string"
        },
        {
          "internalType": "string",
          "name": "_description",
          "type": "string"
        },
        {
          "internalType": "string",
          "name": "_startMonthYear",
          "type": "string"
        },
        {
          "internalType": "string",
          "name": "_endMonthYear",
          "type": "string"
        },
        {
          "internalType": "string",
          "name": "_degreeName",
          "type": "string"
        },
        {
          "internalType": "string",
          "name": "_fieldsOfStudy",
          "type": "string"
        },
        {
          "internalType": "address payable",
          "name": "_verifier",
          "type": "address"
        },
        {
          "internalType": "bool",
          "name": "_isEducation",
          "type": "bool"
        }
      ],
      "name": "createRecord",
      "outputs": [],
      "stateMutability": "payable",
      "type": "function",
      "payable": true
    },
    {
      "inputs": [
        {
          "internalType": "uint256",
          "name": "_recordId",
          "type": "uint256"
        },
        {
          "internalType": "bool",
          "name": "_isApproved",
          "type": "bool"
        }
      ],
      "name": "verifyRecord",
      "outputs": [],
      "stateMutability": "payable",
      "type": "function",
      "payable": true
    },
    {
      "inputs": [
        {
          "internalType": "uint256",
          "name": "_recordId",
          "type": "uint256"
        }
      ],
      "name": "changeStatus",
      "outputs": [],
      "stateMutability": "nonpayable",
      "type": "function"
    },
    {
      "inputs": [],
      "name": "getAllUsers",
      "outputs": [
        {
          "components": [
            {
              "internalType": "uint256",
              "name": "userId",
              "type": "uint256"
            },
            {
              "internalType": "address payable",
              "name": "userAddress",
              "type": "address"
            },
            {
              "internalType": "string",
              "name": "fullName",
              "type": "string"
            },
            {
              "internalType": "string",
              "name": "email",
              "type": "string"
            },
            {
              "internalType": "string",
              "name": "selfDescription",
              "type": "string"
            },
            {
              "internalType": "uint256",
              "name": "verifiedByNum",
              "type": "uint256"
            },
            {
              "internalType": "uint256",
              "name": "hasVerifiedNum",
              "type": "uint256"
            },
            {
              "internalType": "bool",
              "name": "isLookingForJobs",
              "type": "bool"
            }
          ],
          "internalType": "struct EthCV.UserForSearch[]",
          "name": "",
          "type": "tuple[]"
        }
      ],
      "stateMutability": "view",
      "type": "function",
      "constant": true
    }
  ],
  "bytecode": "0x608060405260006001556000600255670de0b6b3a7640000600355670b1a2bc2ec5000006004556000600555600160065560026007553480156200004257600080fd5b506040518060400160405280601181526020017f454543453537312045544843562e434f4d000000000000000000000000000000815250600090805190602001906200009092919062000097565b506200014d565b828054600181600116156101000203166002900490600052602060002090601f016020900481019282620000cf57600085556200011b565b82601f10620000ea57805160ff19168380011785556200011b565b828001600101855582156200011b579182015b828111156200011a578251825591602001919060010190620000fd565b5b5090506200012a91906200012e565b5090565b5b80821115620001495760008160009055506001016200012f565b5090565b615fde806200015d6000396000f3fe6080604052600436106101095760003560e01c8063a4b4e42b11610095578063e3967eed11610064578063e3967eed1461035c578063e8025d7714610387578063ec2ead69146103b0578063ecd36b34146103d9578063ef5652ac1461040457610109565b8063a4b4e42b146102b2578063c0daddfd146102db578063d183dcce14610306578063e2842d791461033157610109565b80636c1fdd35116100dc5780636c1fdd35146101d357806380497abc146101fc5780638a7c65c0146102405780638b81ba841461026b5780639b57904f1461028757610109565b80630c97282c1461010e5780631ed6f423146101395780633446106714610162578063561529b3146101a8575b600080fd5b34801561011a57600080fd5b50610123610420565b60405161013091906158df565b60405180910390f35b34801561014557600080fd5b50610160600480360381019061015b9190614722565b6104be565b005b34801561016e57600080fd5b50610189600480360381019061018491906149fa565b610a20565b60405161019f9a99989796959493929190615c02565b60405180910390f35b3480156101b457600080fd5b506101bd6111c4565b6040516101ca9190615be7565b60405180910390f35b3480156101df57600080fd5b506101fa60048036038101906101f59190614776565b6111ca565b005b34801561020857600080fd5b50610223600480360381019061021e91906149fa565b61171d565b604051610237989796959493929190615cba565b60405180910390f35b34801561024c57600080fd5b5061025561196a565b6040516102629190615be7565b60405180910390f35b6102856004803603810190610280919061485f565b611970565b005b34801561029357600080fd5b5061029c611fcd565b6040516102a99190615be7565b60405180910390f35b3480156102be57600080fd5b506102d960048036038101906102d49190614722565b611fd3565b005b3480156102e757600080fd5b506102f06121cb565b6040516102fd9190615be7565b60405180910390f35b34801561031257600080fd5b5061031b6121d1565b6040516103289190615be7565b60405180910390f35b34801561033d57600080fd5b506103466121d7565b60405161035391906158bd565b60405180910390f35b34801561036857600080fd5b506103716124ac565b60405161037e9190615be7565b60405180910390f35b34801561039357600080fd5b506103ae60048036038101906103a991906149fa565b6124b2565b005b3480156103bc57600080fd5b506103d760048036038101906103d291906146f9565b61305a565b005b3480156103e557600080fd5b506103ee61360b565b6040516103fb9190615be7565b60405180910390f35b61041e60048036038101906104199190614a23565b613611565b005b60008054600181600116156101000203166002900480601f0160208091040260200160405190810160405280929190818152602001828054600181600116156101000203166002900480156104b65780601f1061048b576101008083540402835291602001916104b6565b820191906000526020600020905b81548152906001019060200180831161049957829003601f168201915b505050505081565b8173ffffffffffffffffffffffffffffffffffffffff163373ffffffffffffffffffffffffffffffffffffffff161461052c576040517f08c379a000000000000000000000000000000000000000000000000000000000815260040161052390615b21565b60405180910390fd5b6000600860008473ffffffffffffffffffffffffffffffffffffffff1673ffffffffffffffffffffffffffffffffffffffff168152602001908152602001600020604051806101200160405290816000820160009054906101000a900473ffffffffffffffffffffffffffffffffffffffff1673ffffffffffffffffffffffffffffffffffffffff1673ffffffffffffffffffffffffffffffffffffffff16815260200160018201548152602001600282018054600181600116156101000203166002900480601f0160208091040260200160405190810160405280929190818152602001828054600181600116156101000203166002900480156106725780601f1061064757610100808354040283529160200191610672565b820191906000526020600020905b81548152906001019060200180831161065557829003601f168201915b50505050508152602001600382018054600181600116156101000203166002900480601f0160208091040260200160405190810160405280929190818152602001828054600181600116156101000203166002900480156107145780601f106106e957610100808354040283529160200191610714565b820191906000526020600020905b8154815290600101906020018083116106f757829003601f168201915b50505050508152602001600482018054600181600116156101000203166002900480601f0160208091040260200160405190810160405280929190818152602001828054600181600116156101000203166002900480156107b65780601f1061078b576101008083540402835291602001916107b6565b820191906000526020600020905b81548152906001019060200180831161079957829003601f168201915b50505050508152602001600582018054600181600116156101000203166002900480601f0160208091040260200160405190810160405280929190818152602001828054600181600116156101000203166002900480156108585780601f1061082d57610100808354040283529160200191610858565b820191906000526020600020905b81548152906001019060200180831161083b57829003601f168201915b5050505050815260200160068201548152602001600782015481526020016008820160009054906101000a900460ff1615151515815250509050818160a0018190525080600860008573ffffffffffffffffffffffffffffffffffffffff1673ffffffffffffffffffffffffffffffffffffffff16815260200190815260200160002060008201518160000160006101000a81548173ffffffffffffffffffffffffffffffffffffffff021916908373ffffffffffffffffffffffffffffffffffffffff160217905550602082015181600101556040820151816002019080519060200190610948929190614400565b506060820151816003019080519060200190610965929190614400565b506080820151816004019080519060200190610982929190614400565b5060a082015181600501908051906020019061099f929190614400565b5060c0820151816006015560e082015181600701556101008201518160080160006101000a81548160ff0219169083151502179055509050503373ffffffffffffffffffffffffffffffffffffffff167f4ee2636d9d8e05a7615cc0fd2e52ac7da430b5d23646c92a265edd47f72dc34260405160405180910390a2505050565b60096020528060005260406000206000915090508060000154908060010160009054906101000a900473ffffffffffffffffffffffffffffffffffffffff16908060020160009054906101000a900473ffffffffffffffffffffffffffffffffffffffff169080600301604051806080016040529081600082018054600181600116156101000203166002900480601f016020809104026020016040519081016040528092919081815260200182805460018160011615610100020316600290048015610b2e5780601f10610b0357610100808354040283529160200191610b2e565b820191906000526020600020905b815481529060010190602001808311610b1157829003601f168201915b50505050508152602001600182018054600181600116156101000203166002900480601f016020809104026020016040519081016040528092919081815260200182805460018160011615610100020316600290048015610bd05780601f10610ba557610100808354040283529160200191610bd0565b820191906000526020600020905b815481529060010190602001808311610bb357829003601f168201915b50505050508152602001600282018054600181600116156101000203166002900480601f016020809104026020016040519081016040528092919081815260200182805460018160011615610100020316600290048015610c725780601f10610c4757610100808354040283529160200191610c72565b820191906000526020600020905b815481529060010190602001808311610c5557829003601f168201915b50505050508152602001600382018054600181600116156101000203166002900480601f016020809104026020016040519081016040528092919081815260200182805460018160011615610100020316600290048015610d145780601f10610ce957610100808354040283529160200191610d14565b820191906000526020600020905b815481529060010190602001808311610cf757829003601f168201915b50505050508152505090806007016040518060a0016040529081600082018054600181600116156101000203166002900480601f016020809104026020016040519081016040528092919081815260200182805460018160011615610100020316600290048015610dc65780601f10610d9b57610100808354040283529160200191610dc6565b820191906000526020600020905b815481529060010190602001808311610da957829003601f168201915b50505050508152602001600182018054600181600116156101000203166002900480601f016020809104026020016040519081016040528092919081815260200182805460018160011615610100020316600290048015610e685780601f10610e3d57610100808354040283529160200191610e68565b820191906000526020600020905b815481529060010190602001808311610e4b57829003601f168201915b50505050508152602001600282018054600181600116156101000203166002900480601f016020809104026020016040519081016040528092919081815260200182805460018160011615610100020316600290048015610f0a5780601f10610edf57610100808354040283529160200191610f0a565b820191906000526020600020905b815481529060010190602001808311610eed57829003601f168201915b50505050508152602001600382018054600181600116156101000203166002900480601f016020809104026020016040519081016040528092919081815260200182805460018160011615610100020316600290048015610fac5780601f10610f8157610100808354040283529160200191610fac565b820191906000526020600020905b815481529060010190602001808311610f8f57829003601f168201915b50505050508152602001600482018054600181600116156101000203166002900480601f01602080910402602001604051908101604052809291908181526020018280546001816001161561010002031660029004801561104e5780601f106110235761010080835404028352916020019161104e565b820191906000526020600020905b81548152906001019060200180831161103157829003601f168201915b5050505050815250509080600c018054600181600116156101000203166002900480601f0160208091040260200160405190810160405280929190818152602001828054600181600116156101000203166002900480156110f05780601f106110c5576101008083540402835291602001916110f0565b820191906000526020600020905b8154815290600101906020018083116110d357829003601f168201915b50505050509080600d018054600181600116156101000203166002900480601f01602080910402602001604051908101604052809291908181526020018280546001816001161561010002031660029004801561118e5780601f106111635761010080835404028352916020019161118e565b820191906000526020600020905b81548152906001019060200180831161117157829003601f168201915b50505050509080600e0160009054906101000a900460ff169080600f0154908060100160009054906101000a900460ff1690508a565b60035481565b600073ffffffffffffffffffffffffffffffffffffffff168673ffffffffffffffffffffffffffffffffffffffff16141561123a576040517f08c379a000000000000000000000000000000000000000000000000000000000815260040161123190615961565b60405180910390fd5b6000600860008873ffffffffffffffffffffffffffffffffffffffff1673ffffffffffffffffffffffffffffffffffffffff16815260200190815260200160002060010154146112bf576040517f08c379a00000000000000000000000000000000000000000000000000000000081526004016112b690615981565b60405180910390fd5b6000855111611303576040517f08c379a00000000000000000000000000000000000000000000000000000000081526004016112fa90615b01565b60405180910390fd5b6000845111611347576040517f08c379a000000000000000000000000000000000000000000000000000000000815260040161133e90615b61565b60405180910390fd5b600083511161138b576040517f08c379a000000000000000000000000000000000000000000000000000000000815260040161138290615a61565b60405180910390fd5b61139361448e565b60016000815480929190600101919050555060015481602001818152505086816000019073ffffffffffffffffffffffffffffffffffffffff16908173ffffffffffffffffffffffffffffffffffffffff1681525050858160400181905250848160600181905250838160800181905250828160a00181905250818161010001901515908115158152505080600860008973ffffffffffffffffffffffffffffffffffffffff1673ffffffffffffffffffffffffffffffffffffffff16815260200190815260200160002060008201518160000160006101000a81548173ffffffffffffffffffffffffffffffffffffffff021916908373ffffffffffffffffffffffffffffffffffffffff1602179055506020820151816001015560408201518160020190805190602001906114cb929190614400565b5060608201518160030190805190602001906114e8929190614400565b506080820151816004019080519060200190611505929190614400565b5060a0820151816005019080519060200190611522929190614400565b5060c0820151816006015560e082015181600701556101008201518160080160006101000a81548160ff0219169083151502179055509050506115636144f2565b86816040018190525087816020019073ffffffffffffffffffffffffffffffffffffffff16908173ffffffffffffffffffffffffffffffffffffffff1681525050600154816000018181525050828160e0019015159081151581525050858160600181905250838160800181905250600a8190806001815401808255809150506001900390600052602060002090600802016000909190919091506000820151816000015560208201518160010160006101000a81548173ffffffffffffffffffffffffffffffffffffffff021916908373ffffffffffffffffffffffffffffffffffffffff160217905550604082015181600201908051906020019061166b929190614400565b506060820151816003019080519060200190611688929190614400565b5060808201518160040190805190602001906116a5929190614400565b5060a0820151816005015560c0820151816006015560e08201518160070160006101000a81548160ff02191690831515021790555050507ff594c688bf89bd5d36613fa228cbd27811fbe1eb34786d4619d52b892a639d7f8260405161170b9190615ba3565b60405180910390a15050505050505050565b600a818154811061172d57600080fd5b90600052602060002090600802016000915090508060000154908060010160009054906101000a900473ffffffffffffffffffffffffffffffffffffffff1690806002018054600181600116156101000203166002900480601f0160208091040260200160405190810160405280929190818152602001828054600181600116156101000203166002900480156118055780601f106117da57610100808354040283529160200191611805565b820191906000526020600020905b8154815290600101906020018083116117e857829003601f168201915b505050505090806003018054600181600116156101000203166002900480601f0160208091040260200160405190810160405280929190818152602001828054600181600116156101000203166002900480156118a35780601f10611878576101008083540402835291602001916118a3565b820191906000526020600020905b81548152906001019060200180831161188657829003601f168201915b505050505090806004018054600181600116156101000203166002900480601f0160208091040260200160405190810160405280929190818152602001828054600181600116156101000203166002900480156119415780601f1061191657610100808354040283529160200191611941565b820191906000526020600020905b81548152906001019060200180831161192457829003601f168201915b5050505050908060050154908060060154908060070160009054906101000a900460ff16905088565b60065481565b600073ffffffffffffffffffffffffffffffffffffffff168273ffffffffffffffffffffffffffffffffffffffff16141580156119d957508173ffffffffffffffffffffffffffffffffffffffff163373ffffffffffffffffffffffffffffffffffffffff1614155b611a18576040517f08c379a0000000000000000000000000000000000000000000000000000000008152600401611a0f90615a41565b60405180910390fd5b6000865111611a5c576040517f08c379a0000000000000000000000000000000000000000000000000000000008152600401611a5390615ac1565b60405180910390fd5b6000855111611aa0576040517f08c379a0000000000000000000000000000000000000000000000000000000008152600401611a97906159e1565b60405180910390fd5b600354341015611ae5576040517f08c379a0000000000000000000000000000000000000000000000000000000008152600401611adc90615a21565b60405180910390fd5b60008a5111611b29576040517f08c379a0000000000000000000000000000000000000000000000000000000008152600401611b2090615ae1565b60405180910390fd5b6000895111611b6d576040517f08c379a0000000000000000000000000000000000000000000000000000000008152600401611b6490615b41565b60405180910390fd5b611b7561454f565b81611bec576000895111611bbe576040517f08c379a0000000000000000000000000000000000000000000000000000000008152600401611bb590615a81565b60405180910390fd5b60405180608001604052808c81526020018b81526020018a8152602001898152508160600181905250611c60565b6000855111611c30576040517f08c379a0000000000000000000000000000000000000000000000000000000008152600401611c2790615aa1565b60405180910390fd5b6040518060a001604052808c81526020018b81526020018681526020018581526020018981525081608001819052505b60026000815480929190600101919050555060025481600001818152505033816020019073ffffffffffffffffffffffffffffffffffffffff16908173ffffffffffffffffffffffffffffffffffffffff168152505082816040019073ffffffffffffffffffffffffffffffffffffffff16908173ffffffffffffffffffffffffffffffffffffffff1681525050818160e001901515908115158152505060055481610100018181525050600181610120019015159081151581525050806009600060025481526020019081526020016000206000820151816000015560208201518160010160006101000a81548173ffffffffffffffffffffffffffffffffffffffff021916908373ffffffffffffffffffffffffffffffffffffffff16021790555060408201518160020160006101000a81548173ffffffffffffffffffffffffffffffffffffffff021916908373ffffffffffffffffffffffffffffffffffffffff1602179055506060820151816003016000820151816000019080519060200190611df0929190614400565b506020820151816001019080519060200190611e0d929190614400565b506040820151816002019080519060200190611e2a929190614400565b506060820151816003019080519060200190611e47929190614400565b5050506080820151816007016000820151816000019080519060200190611e6f929190614400565b506020820151816001019080519060200190611e8c929190614400565b506040820151816002019080519060200190611ea9929190614400565b506060820151816003019080519060200190611ec6929190614400565b506080820151816004019080519060200190611ee3929190614400565b50505060a082015181600c019080519060200190611f02929190614400565b5060c082015181600d019080519060200190611f1f929190614400565b5060e082015181600e0160006101000a81548160ff02191690831515021790555061010082015181600f01556101208201518160100160006101000a81548160ff0219169083151502179055509050503373ffffffffffffffffffffffffffffffffffffffff166002547f98a8df24b95686550fb6e64b36d15244c286aadd121bcb1d2cb38364c1cffce083604051611fb89190615b81565b60405180910390a35050505050505050505050565b60045481565b600073ffffffffffffffffffffffffffffffffffffffff168273ffffffffffffffffffffffffffffffffffffffff161415612043576040517f08c379a000000000000000000000000000000000000000000000000000000000815260040161203a90615961565b60405180910390fd5b6000815111612087576040517f08c379a000000000000000000000000000000000000000000000000000000000815260040161207e90615a61565b60405180910390fd5b80604051602001612098919061588f565b60405160208183030381529060405280519060200120600860008473ffffffffffffffffffffffffffffffffffffffff1673ffffffffffffffffffffffffffffffffffffffff16815260200190815260200160002060040160405160200161210091906158a6565b604051602081830303815290604052805190602001201415612192577ff594c688bf89bd5d36613fa228cbd27811fbe1eb34786d4619d52b892a639d7f600860008473ffffffffffffffffffffffffffffffffffffffff1673ffffffffffffffffffffffffffffffffffffffff1681526020019081526020016000206040516121899190615bc5565b60405180910390a15b7f4c74530a3ef466183b718601f9ad1f7a0c8ec56463a9e68efef55c81e7e4141f6040516121bf90615a01565b60405180910390a15050565b60025481565b60075481565b6060600a805480602002602001604051908101604052809291908181526020016000905b828210156124a3578382906000526020600020906008020160405180610100016040529081600082015481526020016001820160009054906101000a900473ffffffffffffffffffffffffffffffffffffffff1673ffffffffffffffffffffffffffffffffffffffff1673ffffffffffffffffffffffffffffffffffffffff168152602001600282018054600181600116156101000203166002900480601f0160208091040260200160405190810160405280929190818152602001828054600181600116156101000203166002900480156123185780601f106122ed57610100808354040283529160200191612318565b820191906000526020600020905b8154815290600101906020018083116122fb57829003601f168201915b50505050508152602001600382018054600181600116156101000203166002900480601f0160208091040260200160405190810160405280929190818152602001828054600181600116156101000203166002900480156123ba5780601f1061238f576101008083540402835291602001916123ba565b820191906000526020600020905b81548152906001019060200180831161239d57829003601f168201915b50505050508152602001600482018054600181600116156101000203166002900480601f01602080910402602001604051908101604052809291908181526020018280546001816001161561010002031660029004801561245c5780601f106124315761010080835404028352916020019161245c565b820191906000526020600020905b81548152906001019060200180831161243f57829003601f168201915b5050505050815260200160058201548152602001600682015481526020016007820160009054906101000a900460ff161515151581525050815260200190600101906121fb565b50505050905090565b60015481565b6000811180156124c457506002548111155b612503576040517f08c379a00000000000000000000000000000000000000000000000000000000081526004016124fa906159c1565b60405180910390fd5b60006009600083815260200190815260200160002060405180610140016040529081600082015481526020016001820160009054906101000a900473ffffffffffffffffffffffffffffffffffffffff1673ffffffffffffffffffffffffffffffffffffffff1673ffffffffffffffffffffffffffffffffffffffff1681526020016002820160009054906101000a900473ffffffffffffffffffffffffffffffffffffffff1673ffffffffffffffffffffffffffffffffffffffff1673ffffffffffffffffffffffffffffffffffffffff16815260200160038201604051806080016040529081600082018054600181600116156101000203166002900480601f0160208091040260200160405190810160405280929190818152602001828054600181600116156101000203166002900480156126835780601f1061265857610100808354040283529160200191612683565b820191906000526020600020905b81548152906001019060200180831161266657829003601f168201915b50505050508152602001600182018054600181600116156101000203166002900480601f0160208091040260200160405190810160405280929190818152602001828054600181600116156101000203166002900480156127255780601f106126fa57610100808354040283529160200191612725565b820191906000526020600020905b81548152906001019060200180831161270857829003601f168201915b50505050508152602001600282018054600181600116156101000203166002900480601f0160208091040260200160405190810160405280929190818152602001828054600181600116156101000203166002900480156127c75780601f1061279c576101008083540402835291602001916127c7565b820191906000526020600020905b8154815290600101906020018083116127aa57829003601f168201915b50505050508152602001600382018054600181600116156101000203166002900480601f0160208091040260200160405190810160405280929190818152602001828054600181600116156101000203166002900480156128695780601f1061283e57610100808354040283529160200191612869565b820191906000526020600020905b81548152906001019060200180831161284c57829003601f168201915b5050505050815250508152602001600782016040518060a0016040529081600082018054600181600116156101000203166002900480601f01602080910402602001604051908101604052809291908181526020018280546001816001161561010002031660029004801561291f5780601f106128f45761010080835404028352916020019161291f565b820191906000526020600020905b81548152906001019060200180831161290257829003601f168201915b50505050508152602001600182018054600181600116156101000203166002900480601f0160208091040260200160405190810160405280929190818152602001828054600181600116156101000203166002900480156129c15780601f10612996576101008083540402835291602001916129c1565b820191906000526020600020905b8154815290600101906020018083116129a457829003601f168201915b50505050508152602001600282018054600181600116156101000203166002900480601f016020809104026020016040519081016040528092919081815260200182805460018160011615610100020316600290048015612a635780601f10612a3857610100808354040283529160200191612a63565b820191906000526020600020905b815481529060010190602001808311612a4657829003601f168201915b50505050508152602001600382018054600181600116156101000203166002900480601f016020809104026020016040519081016040528092919081815260200182805460018160011615610100020316600290048015612b055780601f10612ada57610100808354040283529160200191612b05565b820191906000526020600020905b815481529060010190602001808311612ae857829003601f168201915b50505050508152602001600482018054600181600116156101000203166002900480601f016020809104026020016040519081016040528092919081815260200182805460018160011615610100020316600290048015612ba75780601f10612b7c57610100808354040283529160200191612ba7565b820191906000526020600020905b815481529060010190602001808311612b8a57829003601f168201915b5050505050815250508152602001600c82018054600181600116156101000203166002900480601f016020809104026020016040519081016040528092919081815260200182805460018160011615610100020316600290048015612c4d5780601f10612c2257610100808354040283529160200191612c4d565b820191906000526020600020905b815481529060010190602001808311612c3057829003601f168201915b50505050508152602001600d82018054600181600116156101000203166002900480601f016020809104026020016040519081016040528092919081815260200182805460018160011615610100020316600290048015612cef5780601f10612cc457610100808354040283529160200191612cef565b820191906000526020600020905b815481529060010190602001808311612cd257829003601f168201915b50505050508152602001600e820160009054906101000a900460ff16151515158152602001600f82015481526020016010820160009054906101000a900460ff1615151515815250509050806020015173ffffffffffffffffffffffffffffffffffffffff163373ffffffffffffffffffffffffffffffffffffffff1614612dac576040517f08c379a0000000000000000000000000000000000000000000000000000000008152600401612da390615941565b60405180910390fd5b806101200151158161012001901515908115158152505080600960008481526020019081526020016000206000820151816000015560208201518160010160006101000a81548173ffffffffffffffffffffffffffffffffffffffff021916908373ffffffffffffffffffffffffffffffffffffffff16021790555060408201518160020160006101000a81548173ffffffffffffffffffffffffffffffffffffffff021916908373ffffffffffffffffffffffffffffffffffffffff1602179055506060820151816003016000820151816000019080519060200190612e94929190614400565b506020820151816001019080519060200190612eb1929190614400565b506040820151816002019080519060200190612ece929190614400565b506060820151816003019080519060200190612eeb929190614400565b5050506080820151816007016000820151816000019080519060200190612f13929190614400565b506020820151816001019080519060200190612f30929190614400565b506040820151816002019080519060200190612f4d929190614400565b506060820151816003019080519060200190612f6a929190614400565b506080820151816004019080519060200190612f87929190614400565b50505060a082015181600c019080519060200190612fa6929190614400565b5060c082015181600d019080519060200190612fc3929190614400565b5060e082015181600e0160006101000a81548160ff02191690831515021790555061010082015181600f01556101208201518160100160006101000a81548160ff0219169083151502179055509050503373ffffffffffffffffffffffffffffffffffffffff167f7a9897550407322d066ccbd3b6477f102d98389e86084b49704f3bec8f10b25d60405160405180910390a25050565b8073ffffffffffffffffffffffffffffffffffffffff163373ffffffffffffffffffffffffffffffffffffffff16146130c8576040517f08c379a00000000000000000000000000000000000000000000000000000000081526004016130bf906159a1565b60405180910390fd5b6000600860008373ffffffffffffffffffffffffffffffffffffffff1673ffffffffffffffffffffffffffffffffffffffff168152602001908152602001600020604051806101200160405290816000820160009054906101000a900473ffffffffffffffffffffffffffffffffffffffff1673ffffffffffffffffffffffffffffffffffffffff1673ffffffffffffffffffffffffffffffffffffffff16815260200160018201548152602001600282018054600181600116156101000203166002900480601f01602080910402602001604051908101604052809291908181526020018280546001816001161561010002031660029004801561320e5780601f106131e35761010080835404028352916020019161320e565b820191906000526020600020905b8154815290600101906020018083116131f157829003601f168201915b50505050508152602001600382018054600181600116156101000203166002900480601f0160208091040260200160405190810160405280929190818152602001828054600181600116156101000203166002900480156132b05780601f10613285576101008083540402835291602001916132b0565b820191906000526020600020905b81548152906001019060200180831161329357829003601f168201915b50505050508152602001600482018054600181600116156101000203166002900480601f0160208091040260200160405190810160405280929190818152602001828054600181600116156101000203166002900480156133525780601f1061332757610100808354040283529160200191613352565b820191906000526020600020905b81548152906001019060200180831161333557829003601f168201915b50505050508152602001600582018054600181600116156101000203166002900480601f0160208091040260200160405190810160405280929190818152602001828054600181600116156101000203166002900480156133f45780601f106133c9576101008083540402835291602001916133f4565b820191906000526020600020905b8154815290600101906020018083116133d757829003601f168201915b5050505050815260200160068201548152602001600782015481526020016008820160009054906101000a900460ff1615151515815250509050806101000151158161010001901515908115158152505080600860008473ffffffffffffffffffffffffffffffffffffffff1673ffffffffffffffffffffffffffffffffffffffff16815260200190815260200160002060008201518160000160006101000a81548173ffffffffffffffffffffffffffffffffffffffff021916908373ffffffffffffffffffffffffffffffffffffffff1602179055506020820151816001015560408201518160020190805190602001906134f2929190614400565b50606082015181600301908051906020019061350f929190614400565b50608082015181600401908051906020019061352c929190614400565b5060a0820151816005019080519060200190613549929190614400565b5060c0820151816006015560e082015181600701556101008201518160080160006101000a81548160ff021916908315150217905550905050806101000151600a60018360200151038154811061359c57fe5b906000526020600020906008020160070160006101000a81548160ff0219169083151502179055503373ffffffffffffffffffffffffffffffffffffffff167f0e11245d33bd68b9d4b0c1927c1c836c0f77da9608578445072cb0be56cf3f5d60405160405180910390a25050565b60055481565b60008211801561362357506002548211155b613662576040517f08c379a0000000000000000000000000000000000000000000000000000000008152600401613659906159c1565b60405180910390fd5b60006009600084815260200190815260200160002060405180610140016040529081600082015481526020016001820160009054906101000a900473ffffffffffffffffffffffffffffffffffffffff1673ffffffffffffffffffffffffffffffffffffffff1673ffffffffffffffffffffffffffffffffffffffff1681526020016002820160009054906101000a900473ffffffffffffffffffffffffffffffffffffffff1673ffffffffffffffffffffffffffffffffffffffff1673ffffffffffffffffffffffffffffffffffffffff16815260200160038201604051806080016040529081600082018054600181600116156101000203166002900480601f0160208091040260200160405190810160405280929190818152602001828054600181600116156101000203166002900480156137e25780601f106137b7576101008083540402835291602001916137e2565b820191906000526020600020905b8154815290600101906020018083116137c557829003601f168201915b50505050508152602001600182018054600181600116156101000203166002900480601f0160208091040260200160405190810160405280929190818152602001828054600181600116156101000203166002900480156138845780601f1061385957610100808354040283529160200191613884565b820191906000526020600020905b81548152906001019060200180831161386757829003601f168201915b50505050508152602001600282018054600181600116156101000203166002900480601f0160208091040260200160405190810160405280929190818152602001828054600181600116156101000203166002900480156139265780601f106138fb57610100808354040283529160200191613926565b820191906000526020600020905b81548152906001019060200180831161390957829003601f168201915b50505050508152602001600382018054600181600116156101000203166002900480601f0160208091040260200160405190810160405280929190818152602001828054600181600116156101000203166002900480156139c85780601f1061399d576101008083540402835291602001916139c8565b820191906000526020600020905b8154815290600101906020018083116139ab57829003601f168201915b5050505050815250508152602001600782016040518060a0016040529081600082018054600181600116156101000203166002900480601f016020809104026020016040519081016040528092919081815260200182805460018160011615610100020316600290048015613a7e5780601f10613a5357610100808354040283529160200191613a7e565b820191906000526020600020905b815481529060010190602001808311613a6157829003601f168201915b50505050508152602001600182018054600181600116156101000203166002900480601f016020809104026020016040519081016040528092919081815260200182805460018160011615610100020316600290048015613b205780601f10613af557610100808354040283529160200191613b20565b820191906000526020600020905b815481529060010190602001808311613b0357829003601f168201915b50505050508152602001600282018054600181600116156101000203166002900480601f016020809104026020016040519081016040528092919081815260200182805460018160011615610100020316600290048015613bc25780601f10613b9757610100808354040283529160200191613bc2565b820191906000526020600020905b815481529060010190602001808311613ba557829003601f168201915b50505050508152602001600382018054600181600116156101000203166002900480601f016020809104026020016040519081016040528092919081815260200182805460018160011615610100020316600290048015613c645780601f10613c3957610100808354040283529160200191613c64565b820191906000526020600020905b815481529060010190602001808311613c4757829003601f168201915b50505050508152602001600482018054600181600116156101000203166002900480601f016020809104026020016040519081016040528092919081815260200182805460018160011615610100020316600290048015613d065780601f10613cdb57610100808354040283529160200191613d06565b820191906000526020600020905b815481529060010190602001808311613ce957829003601f168201915b5050505050815250508152602001600c82018054600181600116156101000203166002900480601f016020809104026020016040519081016040528092919081815260200182805460018160011615610100020316600290048015613dac5780601f10613d8157610100808354040283529160200191613dac565b820191906000526020600020905b815481529060010190602001808311613d8f57829003601f168201915b50505050508152602001600d82018054600181600116156101000203166002900480601f016020809104026020016040519081016040528092919081815260200182805460018160011615610100020316600290048015613e4e5780601f10613e2357610100808354040283529160200191613e4e565b820191906000526020600020905b815481529060010190602001808311613e3157829003601f168201915b50505050508152602001600e820160009054906101000a900460ff16151515158152602001600f82015481526020016010820160009054906101000a900460ff16151515158152505090506000816040015190508073ffffffffffffffffffffffffffffffffffffffff163373ffffffffffffffffffffffffffffffffffffffff1614613f10576040517f08c379a0000000000000000000000000000000000000000000000000000000008152600401613f0790615901565b60405180910390fd5b60055482610100015114613f59576040517f08c379a0000000000000000000000000000000000000000000000000000000008152600401613f5090615921565b60405180910390fd5b82613f6657600754613f6a565b6006545b8261010001818152505081600960008681526020019081526020016000206000820151816000015560208201518160010160006101000a81548173ffffffffffffffffffffffffffffffffffffffff021916908373ffffffffffffffffffffffffffffffffffffffff16021790555060408201518160020160006101000a81548173ffffffffffffffffffffffffffffffffffffffff021916908373ffffffffffffffffffffffffffffffffffffffff1602179055506060820151816003016000820151816000019080519060200190614045929190614400565b506020820151816001019080519060200190614062929190614400565b50604082015181600201908051906020019061407f929190614400565b50606082015181600301908051906020019061409c929190614400565b50505060808201518160070160008201518160000190805190602001906140c4929190614400565b5060208201518160010190805190602001906140e1929190614400565b5060408201518160020190805190602001906140fe929190614400565b50606082015181600301908051906020019061411b929190614400565b506080820151816004019080519060200190614138929190614400565b50505060a082015181600c019080519060200190614157929190614400565b5060c082015181600d019080519060200190614174929190614400565b5060e082015181600e0160006101000a81548160ff02191690831515021790555061010082015181600f01556101208201518160100160006101000a81548160ff0219169083151502179055509050508073ffffffffffffffffffffffffffffffffffffffff166108fc6004549081150290604051600060405180830381858888f1935050505015801561420c573d6000803e3d6000fd5b5060086000836020015173ffffffffffffffffffffffffffffffffffffffff1673ffffffffffffffffffffffffffffffffffffffff1681526020019081526020016000206006016000815480929190600101919050555060086000836040015173ffffffffffffffffffffffffffffffffffffffff1673ffffffffffffffffffffffffffffffffffffffff16815260200190815260200160002060070160008154809291906001019190505550600a600160086000856020015173ffffffffffffffffffffffffffffffffffffffff1673ffffffffffffffffffffffffffffffffffffffff16815260200190815260200160002060010154038154811061430f57fe5b906000526020600020906008020160050160008154809291906001019190505550600a600160086000856040015173ffffffffffffffffffffffffffffffffffffffff1673ffffffffffffffffffffffffffffffffffffffff16815260200190815260200160002060010154038154811061438657fe5b906000526020600020906008020160060160008154809291906001019190505550816020015173ffffffffffffffffffffffffffffffffffffffff16847f8b6fa8f23057d9bbfe201c86c3da62e13b6808455f900230d6dd5b2efefa6209846040516143f29190615b81565b60405180910390a350505050565b828054600181600116156101000203166002900490600052602060002090601f016020900481019282614436576000855561447d565b82601f1061444f57805160ff191683800117855561447d565b8280016001018555821561447d579182015b8281111561447c578251825591602001919060010190614461565b5b50905061448a91906145de565b5090565b604051806101200160405280600073ffffffffffffffffffffffffffffffffffffffff168152602001600081526020016060815260200160608152602001606081526020016060815260200160008152602001600081526020016000151581525090565b60405180610100016040528060008152602001600073ffffffffffffffffffffffffffffffffffffffff16815260200160608152602001606081526020016060815260200160008152602001600081526020016000151581525090565b60405180610140016040528060008152602001600073ffffffffffffffffffffffffffffffffffffffff168152602001600073ffffffffffffffffffffffffffffffffffffffff1681526020016145a46145fb565b81526020016145b1614623565b81526020016060815260200160608152602001600015158152602001600081526020016000151581525090565b5b808211156145f75760008160009055506001016145df565b5090565b6040518060800160405280606081526020016060815260200160608152602001606081525090565b6040518060a0016040528060608152602001606081526020016060815260200160608152602001606081525090565b600061466561466084615d7e565b615d4d565b90508281526020810184848401111561467d57600080fd5b614688848285615eb3565b509392505050565b60008135905061469f81615f63565b92915050565b6000813590506146b481615f7a565b92915050565b600082601f8301126146cb57600080fd5b81356146db848260208601614652565b91505092915050565b6000813590506146f381615f91565b92915050565b60006020828403121561470b57600080fd5b600061471984828501614690565b91505092915050565b6000806040838503121561473557600080fd5b600061474385828601614690565b925050602083013567ffffffffffffffff81111561476057600080fd5b61476c858286016146ba565b9150509250929050565b60008060008060008060c0878903121561478f57600080fd5b600061479d89828a01614690565b965050602087013567ffffffffffffffff8111156147ba57600080fd5b6147c689828a016146ba565b955050604087013567ffffffffffffffff8111156147e357600080fd5b6147ef89828a016146ba565b945050606087013567ffffffffffffffff81111561480c57600080fd5b61481889828a016146ba565b935050608087013567ffffffffffffffff81111561483557600080fd5b61484189828a016146ba565b92505060a061485289828a016146a5565b9150509295509295509295565b6000806000806000806000806000806101408b8d03121561487f57600080fd5b60008b013567ffffffffffffffff81111561489957600080fd5b6148a58d828e016146ba565b9a505060208b013567ffffffffffffffff8111156148c257600080fd5b6148ce8d828e016146ba565b99505060408b013567ffffffffffffffff8111156148eb57600080fd5b6148f78d828e016146ba565b98505060608b013567ffffffffffffffff81111561491457600080fd5b6149208d828e016146ba565b97505060808b013567ffffffffffffffff81111561493d57600080fd5b6149498d828e016146ba565b96505060a08b013567ffffffffffffffff81111561496657600080fd5b6149728d828e016146ba565b95505060c08b013567ffffffffffffffff81111561498f57600080fd5b61499b8d828e016146ba565b94505060e08b013567ffffffffffffffff8111156149b857600080fd5b6149c48d828e016146ba565b9350506101006149d68d828e01614690565b9250506101206149e88d828e016146a5565b9150509295989b9194979a5092959850565b600060208284031215614a0c57600080fd5b6000614a1a848285016146e4565b91505092915050565b60008060408385031215614a3657600080fd5b6000614a44858286016146e4565b9250506020614a55858286016146a5565b9150509250929050565b6000614a6b83836155cb565b905092915050565b614a7c81615e6b565b82525050565b614a8b81615e6b565b82525050565b6000614a9c82615dd3565b614aa68185615df6565b935083602082028501614ab885615dae565b8060005b85811015614af45784840389528151614ad58582614a5f565b9450614ae083615de9565b925060208a01995050600181019050614abc565b50829750879550505050505092915050565b614b0f81615e7d565b82525050565b614b1e81615e7d565b82525050565b6000614b2f82615dde565b614b398185615e07565b9350614b49818560208601615ec2565b614b5281615f45565b840191505092915050565b6000614b6882615dde565b614b728185615e18565b9350614b82818560208601615ec2565b614b8b81615f45565b840191505092915050565b6000614ba182615dde565b614bab8185615e29565b9350614bbb818560208601615ec2565b80840191505092915050565b600081546001811660008114614be45760018114614c0a57614c4e565b607f6002830416614bf58187615e07565b955060ff198316865260208601935050614c4e565b60028204614c188187615e07565b9550614c2385615dbe565b60005b82811015614c4557815481890152600182019150602081019050614c26565b80880195505050505b505092915050565b600081546001811660008114614c735760018114614c9857614cdc565b607f6002830416614c848187615e29565b955060ff1983168652808601935050614cdc565b60028204614ca68187615e29565b9550614cb185615dbe565b60005b82811015614cd357815481890152600182019150602081019050614cb4565b82880195505050505b505092915050565b6000614cf1602c83615e18565b91507f5265636f72642073686f756c6420626520766572696669656420627920636f7260008301527f72656374206164647265737300000000000000000000000000000000000000006020830152604082019050919050565b6000614d57602c83615e18565b91507f5265636f72642073686f756c64206e6f74206265207665726966696564206f7260008301527f20646973617070726f76656400000000000000000000000000000000000000006020830152604082019050919050565b6000614dbd602483615e18565b91507f4f6e6c7920746865206f776e65722063616e206368616e67652074686520737460008301527f61747573000000000000000000000000000000000000000000000000000000006020830152604082019050919050565b6000614e23601883615e18565b91507f6163636f756e742063616e206e6f7420626520656d70747900000000000000006000830152602082019050919050565b6000614e63601a83615e18565b91507f6163636f756e742063616e206e6f7420626520657869737465640000000000006000830152602082019050919050565b6000614ea3602c83615e18565b91507f6f6e6c7920746865206163636f756e74206f776e65722063616e206368616e6760008301527f65207468652073746174757300000000000000000000000000000000000000006020830152604082019050919050565b6000614f09601383615e18565b91507f5265636f72642073686f756c64206578697374000000000000000000000000006000830152602082019050919050565b6000614f49601a83615e18565b91507f456e64204d6f6e746820596561722069732072657175697265640000000000006000830152602082019050919050565b6000614f89600f83615e18565b91507f57726f6e672070617373776f72642100000000000000000000000000000000006000830152602082019050919050565b6000614fc9601683615e18565b91507f5061796d656e742073686f756c6420626520676f6f64000000000000000000006000830152602082019050919050565b6000615009602283615e18565b91507f56616c696420766572696669657220616464726573732069732072657175697260008301527f65640000000000000000000000000000000000000000000000000000000000006020830152604082019050919050565b600061506f601983615e18565b91507f70617373776f72642063616e206e6f7420626520656d707479000000000000006000830152602082019050919050565b60006150af601483615e18565b91507f506f736974696f6e2069732072657175697265640000000000000000000000006000830152602082019050919050565b60006150ef601783615e18565b91507f446567726565204e616d652069732072657175697265640000000000000000006000830152602082019050919050565b600061512f601c83615e18565b91507f5374617274204d6f6e74682059656172206973207265717569726564000000006000830152602082019050919050565b600061516f600e83615e18565b91507f49642069732072657175697265640000000000000000000000000000000000006000830152602082019050919050565b60006151af601583615e18565b91507f6e616d652063616e206e6f7420626520656d70747900000000000000000000006000830152602082019050919050565b60006151ef603183615e18565b91507f6f6e6c7920746865206163636f756e74206f776e65722063616e206368616e6760008301527f6520746865206465736372697074696f6e0000000000000000000000000000006020830152604082019050919050565b6000615255601483615e18565b91507f4f7267204e616d652069732072657175697265640000000000000000000000006000830152602082019050919050565b6000615295601683615e18565b91507f656d61696c2063616e206e6f7420626520656d707479000000000000000000006000830152602082019050919050565b600060a08301600083015184820360008601526152e58282614b24565b915050602083015184820360208601526152ff8282614b24565b915050604083015184820360408601526153198282614b24565b915050606083015184820360608601526153338282614b24565b9150506080830151848203608086015261534d8282614b24565b9150508091505092915050565b600060a08301600083015184820360008601526153778282614b24565b915050602083015184820360208601526153918282614b24565b915050604083015184820360408601526153ab8282614b24565b915050606083015184820360608601526153c58282614b24565b915050608083015184820360808601526153df8282614b24565b9150508091505092915050565b600060808301600083015184820360008601526154098282614b24565b915050602083015184820360208601526154238282614b24565b9150506040830151848203604086015261543d8282614b24565b915050606083015184820360608601526154578282614b24565b9150508091505092915050565b600060808301600083015184820360008601526154818282614b24565b9150506020830151848203602086015261549b8282614b24565b915050604083015184820360408601526154b58282614b24565b915050606083015184820360608601526154cf8282614b24565b9150508091505092915050565b6000610140830160008301516154f56000860182615871565b5060208301516155086020860182614a73565b50604083015161551b6040860182614a73565b506060830151848203606086015261553382826153ec565b9150506080830151848203608086015261554d82826152c8565b91505060a083015184820360a08601526155678282614b24565b91505060c083015184820360c08601526155818282614b24565b91505060e083015161559660e0860182614b06565b506101008301516155ab610100860182615871565b506101208301516155c0610120860182614b06565b508091505092915050565b6000610100830160008301516155e46000860182615871565b5060208301516155f76020860182614a73565b506040830151848203604086015261560f8282614b24565b915050606083015184820360608601526156298282614b24565b915050608083015184820360808601526156438282614b24565b91505060a083015161565860a0860182615871565b5060c083015161566b60c0860182615871565b5060e083015161567e60e0860182614b06565b508091505092915050565b6000610120830160008301516156a26000860182614a73565b5060208301516156b56020860182615871565b50604083015184820360408601526156cd8282614b24565b915050606083015184820360608601526156e78282614b24565b915050608083015184820360808601526157018282614b24565b91505060a083015184820360a086015261571b8282614b24565b91505060c083015161573060c0860182615871565b5060e083015161574360e0860182615871565b50610100830151615758610100860182614b06565b508091505092915050565b60006101208301600080840154905061577b81615ef5565b6157886000870182614a73565b506001840154905061579981615f29565b6157a66020870182615871565b506002840185830360408701526157bd8382614bc7565b9250506003840185830360608701526157d68382614bc7565b9250506004840185830360808701526157ef8382614bc7565b9250506005840185830360a08701526158088382614bc7565b9250506006840154905061581b81615f29565b61582860c0870182615871565b506007840154905061583981615f29565b61584660e0870182615871565b506008840154905061585781615f0f565b615865610100870182614b06565b50819250505092915050565b61587a81615ea9565b82525050565b61588981615ea9565b82525050565b600061589b8284614b96565b915081905092915050565b60006158b28284614c56565b915081905092915050565b600060208201905081810360008301526158d78184614a91565b905092915050565b600060208201905081810360008301526158f98184614b5d565b905092915050565b6000602082019050818103600083015261591a81614ce4565b9050919050565b6000602082019050818103600083015261593a81614d4a565b9050919050565b6000602082019050818103600083015261595a81614db0565b9050919050565b6000602082019050818103600083015261597a81614e16565b9050919050565b6000602082019050818103600083015261599a81614e56565b9050919050565b600060208201905081810360008301526159ba81614e96565b9050919050565b600060208201905081810360008301526159da81614efc565b9050919050565b600060208201905081810360008301526159fa81614f3c565b9050919050565b60006020820190508181036000830152615a1a81614f7c565b9050919050565b60006020820190508181036000830152615a3a81614fbc565b9050919050565b60006020820190508181036000830152615a5a81614ffc565b9050919050565b60006020820190508181036000830152615a7a81615062565b9050919050565b60006020820190508181036000830152615a9a816150a2565b9050919050565b60006020820190508181036000830152615aba816150e2565b9050919050565b60006020820190508181036000830152615ada81615122565b9050919050565b60006020820190508181036000830152615afa81615162565b9050919050565b60006020820190508181036000830152615b1a816151a2565b9050919050565b60006020820190508181036000830152615b3a816151e2565b9050919050565b60006020820190508181036000830152615b5a81615248565b9050919050565b60006020820190508181036000830152615b7a81615288565b9050919050565b60006020820190508181036000830152615b9b81846154dc565b905092915050565b60006020820190508181036000830152615bbd8184615689565b905092915050565b60006020820190508181036000830152615bdf8184615763565b905092915050565b6000602082019050615bfc6000830184615880565b92915050565b600061014082019050615c18600083018d615880565b615c25602083018c614a82565b615c32604083018b614a82565b8181036060830152615c44818a615464565b90508181036080830152615c58818961535a565b905081810360a0830152615c6c8188614b5d565b905081810360c0830152615c808187614b5d565b9050615c8f60e0830186614b15565b615c9d610100830185615880565b615cab610120830184614b15565b9b9a5050505050505050505050565b600061010082019050615cd0600083018b615880565b615cdd602083018a614a82565b8181036040830152615cef8189614b5d565b90508181036060830152615d038188614b5d565b90508181036080830152615d178187614b5d565b9050615d2660a0830186615880565b615d3360c0830185615880565b615d4060e0830184614b15565b9998505050505050505050565b6000604051905081810181811067ffffffffffffffff82111715615d7457615d73615f43565b5b8060405250919050565b600067ffffffffffffffff821115615d9957615d98615f43565b5b601f19601f8301169050602081019050919050565b6000819050602082019050919050565b60008190508160005260206000209050919050565b600081519050919050565b600081519050919050565b6000602082019050919050565b600082825260208201905092915050565b600082825260208201905092915050565b600082825260208201905092915050565b600081905092915050565b600073ffffffffffffffffffffffffffffffffffffffff82169050919050565b600060ff82169050919050565b6000819050919050565b6000615e7682615e89565b9050919050565b60008115159050919050565b600073ffffffffffffffffffffffffffffffffffffffff82169050919050565b6000819050919050565b82818337600083830152505050565b60005b83811015615ee0578082015181840152602081019050615ec5565b83811115615eef576000848401525b50505050565b6000615f08615f0383615f56565b615e34565b9050919050565b6000615f22615f1d83615f56565b615e54565b9050919050565b6000615f3c615f3783615f56565b615e61565b9050919050565bfe5b6000601f19601f8301169050919050565b60008160001c9050919050565b615f6c81615e6b565b8114615f7757600080fd5b50565b615f8381615e7d565b8114615f8e57600080fd5b50565b615f9a81615ea9565b8114615fa557600080fd5b5056fea264697066735822122071876d335ea190dd5576f7b9cd1612a2dfde21d076e61f6f8f3fb71098ee912364736f6c63430007060033",
  "immutableReferences": {},
  "source": "//SPDX-License-Identifier: UNLICENSED\npragma solidity ^0.7.6;\npragma abicoder v2;\n\ncontract EthCV {\n    string public appName;\n    uint256 public totalUserNumber = 0;\n    uint256 public totalNumber = 0;\n    uint256 public recordAddPrice = 1 ether;\n    uint256 public recordVerifyAward = 0.8 ether;\n\n    uint256 public UNVERIFIED_CODE = 0;\n    uint256 public APPROVE_CODE = 1;\n    uint256 public DISAPPROVE_CODE = 2;\n\n    mapping(address => User) private users;\n    mapping(uint256 => Record) public records;\n\n    UserForSearch[] public usersForSearch;\n\n    struct User {\n        address payable userAddress;\n        uint256 userId;\n        string fullName;\n        string email;\n        string password;\n        string selfDescription;\n        // whenever a record is verified, find the verifier and owner and change below numbers (changes in verify required!)\n        uint256 verifiedByNum; // count the time the user's experiences verified by others\n        uint256 hasVerifiedNum; // count the number of user verifying others\n        bool isLookingForJobs; // change the status to true if actively looking for jobs\n    }\n\n    struct UserForSearch {\n        uint256 userId;\n        address payable userAddress;\n        string fullName;\n        string email;\n        string selfDescription;\n        uint256 verifiedByNum; // count the time the user's experiences verified by others\n        uint256 hasVerifiedNum;\n        bool isLookingForJobs;\n    }\n\n    struct Record {\n        uint256 recordId;\n        address payable recordOwner;\n        address payable verifier;\n        Experience experience;\n        Education education;\n        string startMonthYear;\n        string endMonthYear;\n        bool isEducation;\n        // 0: not verified 1: verified 2: disapprove\n        uint256 status;\n        bool isActive; // we can keep this in case we need it?\n    }\n\n    struct Experience {\n        // workID\n        string uId;\n        // company\n        string orgName;\n        string position;\n        string description;\n    }\n\n    struct Education {\n        // studentID\n        string uId;\n        // school\n        string orgName;\n        string degreeName;\n        string fieldsOfStudy;\n        string description;\n    }\n\n    event RecordCreated(\n        uint256 indexed recordId,\n        address payable indexed recordOwner,\n        Record record\n    );\n\n    event RecordVerified(\n        uint256 indexed recordId,\n        address payable indexed recordOwner,\n        Record record\n    );\n\n    event StatusChanged(address payable indexed recordOwner);\n\n    event LoginSuccess(User user);\n\n    event LoginFail(string message);\n\t\n\tevent DescriptionChanged(address indexed recordOwner);\n\t\n\tevent JobStatusChanged(address indexed recordOwner);\n\n    constructor() {\n        appName = \"EECE571 ETHCV.COM\";\n    }\n\n    // Register an account (link a metamask account to an password)\n    function Register(\n        address payable _ethAccount,\n        string memory _fullName,\n        string memory _email,\n        string memory _password,\n        string memory _selfDescription,\n        bool _isLookingForJobs\n    ) public {\n        require(_ethAccount != address(0), \"account can not be empty\");\n        require(users[_ethAccount].userId == 0, \"account can not be existed\");\n        require(bytes(_fullName).length > 0, \"name can not be empty\");\n        require(bytes(_email).length > 0, \"email can not be empty\");\n        require(bytes(_password).length > 0, \"password can not be empty\");\n        User memory _user;\n        totalUserNumber++;\n        _user.userId = totalUserNumber;\n        _user.userAddress = _ethAccount;\n        _user.fullName = _fullName;\n        _user.email = _email;\n        _user.password = _password;\n        _user.selfDescription = _selfDescription;\n        _user.isLookingForJobs = _isLookingForJobs;\n        users[_ethAccount] = _user;\n\n        UserForSearch memory _userForSearch;\n        _userForSearch.fullName = _fullName;\n        _userForSearch.userAddress = _ethAccount;\n        _userForSearch.userId = totalUserNumber;\n        _userForSearch.isLookingForJobs = _isLookingForJobs;\n        _userForSearch.email = _email;\n        _userForSearch.selfDescription = _selfDescription;\n        usersForSearch.push(_userForSearch);\n        emit LoginSuccess(_user);\n    }\n\n    /**\n     * input address and password\n     * if they match, return true, otherwise return false.\n     * front end can get this bool and decide what page the user is going to enter\n     */\n    function Login(address payable _ethAccount, string memory _password)\n        public\n    {\n        require(_ethAccount != address(0), \"account can not be empty\");\n        require(bytes(_password).length > 0, \"password can not be empty\");\n        if (\n            keccak256(abi.encodePacked(users[_ethAccount].password)) ==\n            keccak256(abi.encodePacked(_password))\n        ) {\n            emit LoginSuccess(users[_ethAccount]);\n        }\n        emit LoginFail(\"Wrong password!\");\n    }\n\n    //change the self description\n    function changeDescription(\n        address payable _accountAddress,\n        string memory _description\n    ) public {\n        require(\n            msg.sender == _accountAddress,\n            \"only the account owner can change the description\"\n        );\n        User memory _user = users[_accountAddress];\n        _user.selfDescription = _description;\n        users[_accountAddress] = _user;\n\t\temit DescriptionChanged(msg.sender);\n    }\n\n    //change the job seeking status\n    function changeJobStatus(address payable _accountAddress) public {\n        require(\n            msg.sender == _accountAddress,\n            \"only the account owner can change the status\"\n        );\n        User memory _user = users[_accountAddress];\n        _user.isLookingForJobs = !_user.isLookingForJobs;\n        users[_accountAddress] = _user;\n\n        usersForSearch[_user.userId - 1].isLookingForJobs = _user\n            .isLookingForJobs;\n\t\temit JobStatusChanged(msg.sender);\n    }\n\n    // create a record\n    function createRecord(\n        string memory _uId,\n        string memory _orgName,\n        string memory _position,\n        string memory _description,\n        string memory _startMonthYear,\n        string memory _endMonthYear,\n        string memory _degreeName,\n        string memory _fieldsOfStudy,\n        address payable _verifier,\n        bool _isEducation\n    ) public payable {\n        require(\n            _verifier != address(0) && msg.sender != _verifier,\n            \"Valid verifier address is required\"\n        );\n        require(\n            bytes(_startMonthYear).length > 0,\n            \"Start Month Year is required\"\n        );\n        require(bytes(_endMonthYear).length > 0, \"End Month Year is required\");\n        // check payment\n        require(msg.value >= recordAddPrice, \"Payment should be good\");\n        require(bytes(_uId).length > 0, \"Id is required\");\n        require(bytes(_orgName).length > 0, \"Org Name is required\");\n        Record memory _record;\n        if (!_isEducation) {\n            require(bytes(_position).length > 0, \"Position is required\");\n            _record.experience = Experience(\n                _uId,\n                _orgName,\n                _position,\n                _description\n            );\n        } else {\n            require(bytes(_degreeName).length > 0, \"Degree Name is required\");\n            _record.education = Education(\n                _uId,\n                _orgName,\n                _degreeName,\n                _fieldsOfStudy,\n                _description\n            );\n        }\n\n        totalNumber++;\n        _record.recordId = totalNumber;\n        _record.recordOwner = msg.sender;\n        _record.verifier = _verifier;\n        _record.isEducation = _isEducation;\n        _record.status = UNVERIFIED_CODE;\n        _record.isActive = true;\n        records[totalNumber] = _record;\n        emit RecordCreated(totalNumber, msg.sender, _record);\n    }\n\n    // verify a record, true: approve, false: disapprove\n    function verifyRecord(uint256 _recordId, bool _isApproved) public payable {\n        require(\n            _recordId > 0 && _recordId <= totalNumber,\n            \"Record should exist\"\n        );\n        Record memory _record = records[_recordId];\n        address payable _verifier = _record.verifier;\n        require(\n            msg.sender == _verifier,\n            \"Record should be verified by correct address\"\n        );\n        require(\n            _record.status == UNVERIFIED_CODE,\n            \"Record should not be verified or disapproved\"\n        );\n\n        // verify it\n        _record.status = _isApproved ? APPROVE_CODE : DISAPPROVE_CODE;\n        records[_recordId] = _record;\n        _verifier.transfer(recordVerifyAward);\n        // uint verifiedByNum; uint hasVerifiedNum;\n        users[_record.recordOwner].verifiedByNum++;\n        users[_record.verifier].hasVerifiedNum++;\n        usersForSearch[users[_record.recordOwner].userId - 1].verifiedByNum++;\n        usersForSearch[users[_record.verifier].userId - 1].hasVerifiedNum++;\n        emit RecordVerified(_recordId, _record.recordOwner, _record);\n    }\n\n    //change a specific record status, true means others can see the record, false means they can not\n    function changeStatus(uint256 _recordId) public {\n        require(\n            _recordId > 0 && _recordId <= totalNumber,\n            \"Record should exist\"\n        );\n        Record memory _record = records[_recordId];\n        require(\n            msg.sender == _record.recordOwner,\n            \"Only the owner can change the status\"\n        );\n        _record.isActive = !_record.isActive;\n        records[_recordId] = _record;\n        emit StatusChanged(msg.sender);\n    }\n\n    function getAllUsers() public view returns (UserForSearch[] memory) {\n        return usersForSearch;\n    }\n}\n",
  "sourcePath": "/home/melonbun/workspace/eece571g/project/contracts/EthCV.sol",
  "compiler": {
    "name": "solc",
    "version": "0.7.6+commit.7338295f.Emscripten.clang"
  },
  "schemaVersion": "3.3.4",
  "updatedAt": "2021-03-31T10:31:15.472Z",
  "networkType": "ethereum",
  "devdoc": {
    "kind": "dev",
    "methods": {},
    "version": 1
  },
  "userdoc": {
    "kind": "user",
    "methods": {
      "Login(address,string)": {
        "notice": "input address and password if they match, return true, otherwise return false. front end can get this bool and decide what page the user is going to enter"
      }
    },
    "version": 1
  }
}